:020000040800F2
:1000000000500020DD4400088D22000895220008E1
:100010009D220008A5220008AD2200080000000073
:10002000000000000000000000000000B5220008F1
:10003000C122000800000000CD220008D9220008DB
:1000400025450008254500082545000825450008E8
:1000500025450008254500082545000825450008D8
:1000600025450008254500082545000825450008C8
:10007000E52200082545000825450008254500081B
:10008000F9220008254500082545000825450008F7
:100090002545000825450008254500082545000898
:1000A0002545000825450008254500082545000888
:1000B0002545000825450008254500082545000878
:1000C0002545000825450008254500082545000868
:1000D00025450008254500080D23000821230008B8
:1000E00025450008254500082545000800000000BA
:1000F0000000000000000000000000000000000000
:0C01000000000000000000005FF808F1A3
:1001100010B5054C237833B9044B13B10448AFF341
:1001200000800123237010BDD801002000000000D2
:1001300084B4000808B5034B1BB103490348AFF36F
:10014000008008BD00000000DC01002084B400082D
:10015000034613F8012B002AFBD1181A0138704707
:1001600081F0004102E000BF83F0004330B54FEA68
:1001700041044FEA430594EA050F08BF90EA020FD5
:100180001FBF54EA000C55EA020C7FEA645C7FEA68
:10019000655C00F0E2804FEA5454D4EB5555B8BF8B
:1001A0006D420CDD2C4480EA020281EA030382EAFC
:1001B000000083EA010180EA020281EA0303362D8E
:1001C00088BF30BD11F0004F4FEA01314FF4801C61
:1001D0004CEA113102D0404261EB410113F0004F73
:1001E0004FEA03334CEA133302D0524263EB43032A
:1001F00094EA050F00F0A780A4F10104D5F1200EC8
:100200000DDB02FA0EFC22FA05F2801841F1000122
:1002100003FA0EF2801843FA05F359410EE0A5F1F6
:1002200020050EF1200E012A03FA0EFC28BF4CF027
:10023000020C43FA05F3C01851EBE37101F00045DD
:1002400007D54FF0000EDCF1000C7EEB00006EEBEA
:100250000101B1F5801F1BD3B1F5001F0CD3490874
:100260005FEA30004FEA3C0C04F101044FEA4452CB
:1002700012F5800F80F09A80BCF1004F08BF5FEA52
:10028000500C50F1000041EB045141EA050130BD32
:100290005FEA4C0C404141EB0101013C28BFB1F544
:1002A000801FE9D291F0000F04BF01460020B1FA8F
:1002B00081F308BF2033A3F10B03B3F120020CDA62
:1002C0000C3208DD02F1140CC2F10C0201FA0CF040
:1002D00021FA02F10CE002F11402D8BFC2F1200CA5
:1002E00001FA02F120FA0CFCDCBF41EA0C0190405B
:1002F000E41AA2BF01EB0451294330BD6FEA0404A4
:100300001F3C1CDA0C340EDC04F11404C4F120028E
:1003100020FA04F001FA02F340EA030021FA04F3A0
:1003200045EA030130BDC4F10C04C4F1200220FAF7
:1003300002F001FA04F340EA0300294630BD21FA35
:1003400004F0294630BD94F0000F83F4801306BFFB
:1003500081F480110134013D4EE77FEA645C18BFEF
:100360007FEA655C29D094EA050F08BF90EA020F86
:1003700005D054EA000C04BF1946104630BD91EA7E
:10038000030F1EBF0021002030BD5FEA545C05D181
:100390004000494128BF41F0004130BD14F58004C0
:1003A0003CBF01F5801130BD01F0004545F0FE4134
:1003B00041F470014FF0000030BD7FEA645C1ABF69
:1003C000194610467FEA655C1CBF0B46024650EAA0
:1003D000013406BF52EA033591EA030F41F40021CC
:1003E00030BD00BF90F0000F04BF0021704730B552
:1003F0004FF4806404F132044FF000054FF0000127
:1004000050E700BF90F0000F04BF0021704730B5E7
:100410004FF4806404F1320410F0004548BF4042BC
:100420004FF000013EE700BF42004FEAE2014FEA11
:1004300031014FEA02701FBF12F07F4393F07F4FEC
:1004400081F06051704732F07F4208BF704793F0EF
:100450007F4F04BF41F40021704730B54FF4607402
:1004600001F0004521F000411CE700BF50EA010205
:1004700008BF704730B54FF000050AE050EA0102AE
:1004800008BF704730B511F0004502D5404261EB1E
:1004900041014FF4806404F132045FEA915C3FF45F
:1004A000D8AE4FF003025FEADC0C18BF03325FEAFC
:1004B000DC0C18BF033202EBDC02C2F1200300FAAD
:1004C00003FC20FA02F001FA03FE40EA0E0021FAD2
:1004D00002F11444BDE600BF70B54FF0FF0C4CF4C0
:1004E000E06C1CEA11541DBF1CEA135594EA0C0F72
:1004F00095EA0C0F00F0DEF82C4481EA030621EAAD
:100500004C5123EA4C5350EA013518BF52EA0335E7
:1005100041F4801143F4801338D0A0FB02CE4FF099
:100520000005E1FB02E506F00042E0FB03E54FF0C9
:100530000006E1FB03569CF0000F18BF4EF0010EC1
:10054000A4F1FF04B6F5007F64F5407404D25FEABD
:100550004E0E6D4146EB060642EAC62141EA555170
:100560004FEAC52040EA5E504FEACE2EB4F1FD0CB2
:1005700088BFBCF5E06F1ED8BEF1004F08BF5FEA30
:10058000500E50F1000041EB045170BD06F00046E2
:1005900046EA010140EA020081EA0301B4EB5C048F
:1005A000C2BFD4EB0C0541EA045170BD41F4801187
:1005B0004FF0000E013C00F3AB8014F1360FDEBFAC
:1005C000002001F0004170BDC4F10004203C35DA88
:1005D0000C341BDC04F11404C4F1200500FA05F30B
:1005E00020FA04F001FA05F240EA020001F00042AC
:1005F00021F0004110EBD37021FA04F642EB060122
:100600005EEA430E08BF20EAD37070BDC4F10C044B
:10061000C4F1200500FA04F320FA05F001FA04F20F
:1006200040EA020001F0004110EBD37041F10001FB
:100630005EEA430E08BF20EAD37070BDC4F1200506
:1006400000FA05F24EEA020E20FA04F301FA05F26E
:1006500043EA020321FA04F001F0004121FA04F216
:1006600020EA020000EBD3705EEA430E08BF20EAE6
:10067000D37070BD94F0000F0FD101F00046400020
:1006800041EB010111F4801F08BF013CF7D041EAA2
:10069000060195F0000F18BF704703F000465200A6
:1006A00043EB030313F4801F08BF013DF7D043EA77
:1006B0000603704794EA0C0F0CEA135518BF95EA2D
:1006C0000C0F0CD050EA410618BF52EA4306D1D1B4
:1006D00081EA030101F000414FF0000070BD50EAD3
:1006E000410606BF1046194652EA430619D094EA5D
:1006F0000C0F02D150EA013613D195EA0C0F05D147
:1007000052EA03361CBF104619460AD181EA03019A
:1007100001F0004141F0FE4141F470014FF0000052
:1007200070BD41F0FE4141F4780170BD70B54FF0ED
:10073000FF0C4CF4E06C1CEA11541DBF1CEA13556D
:1007400094EA0C0F95EA0C0F00F0A7F8A4EB05044F
:1007500081EA030E52EA03354FEA013100F0888046
:100760004FEA03334FF0805545EA131343EA12630F
:100770004FEA022245EA111545EA10654FEA0026C4
:100780000EF000419D4208BF964244F1FD0404F57D
:10079000407402D25B084FEA3202B61A65EB0305D9
:1007A0005B084FEA32024FF480104FF4002CB6EB96
:1007B000020E75EB030E22BFB61A754640EA0C0016
:1007C0005B084FEA3202B6EB020E75EB030E22BF56
:1007D000B61A754640EA5C005B084FEA3202B6EB97
:1007E000020E75EB030E22BFB61A754640EA9C0056
:1007F0005B084FEA3202B6EB020E75EB030E22BF26
:10080000B61A754640EADC0055EA060E18D04FEAE3
:10081000051545EA16754FEA06164FEAC30343EA83
:1008200052734FEAC2025FEA1C1CC0D111F4801F50
:100830000BD141EA00014FF000004FF0004CB6E749
:1008400011F4801F04BF01430020B4F1FD0C88BFE8
:10085000BCF5E06F3FF6AFAEB5EB030C04BFB6EBF3
:10086000020C5FEA500C50F1000041EB045170BDE6
:100870000EF0004E4EEA113114EB5C04C2BFD4EB13
:100880000C0541EA045170BD41F480114FF0000E97
:10089000013C90E645EA060E8DE60CEA135594EA13
:1008A0000C0F08BF95EA0C0F3FF43BAF94EA0C0F16
:1008B0000AD150EA01347FF434AF95EA0C0F7FF48B
:1008C00025AF104619462CE795EA0C0F06D152EADF
:1008D00003353FF4FDAE1046194622E750EA4106C3
:1008E00018BF52EA43067FF4C5AE50EA41047FF4D4
:1008F0000DAF52EA43057FF4EBAE12E74FF0FF3C39
:1009000006E000BF4FF0010C02E000BF4FF0010C09
:100910004DF804CD4FEA410C7FEA6C5C4FEA430C82
:1009200018BF7FEA6C5C1BD001B050EA410C0CBFD1
:1009300052EA430C91EA030F02BF90EA020F002033
:10094000704710F1000F91EA030F58BF994208BF9A
:1009500090422CBFD8176FEAE37040F00100704757
:100960004FEA410C7FEA6C5C02D150EA013C07D1AE
:100970004FEA430C7FEA6C5CD6D152EA033CD3D0F9
:100980005DF8040B704700BF8446104662468C46F3
:100990001946634600E000BF01B5FFF7B7FF002826
:1009A00048BF10F1000F01BD4DF808EDFFF7F4FF4F
:1009B0000CBF012000205DF808FB00BF4DF808EDDA
:1009C000FFF7EAFF34BF012000205DF808FB00BFFD
:1009D0004DF808EDFFF7E0FF94BF012000205DF81F
:1009E00008FB00BF4DF808EDFFF7CEFF94BF0120D4
:1009F00000205DF808FB00BF4DF808EDFFF7C4FFCD
:100A000034BF012000205DF808FB00BF4A0011D26E
:100A100012F5001211D20DD56FF47873B3EB625258
:100A20000ED44FEAC12343F0004343EA505323FA64
:100A300002F070474FF00000704750EA013002D1D9
:100A40004FF0FF3070474FF0000070474FEA41020F
:100A5000B2F1E04324BFB3F5001CDCF1FE5C0DD91C
:100A600001F0004C4FEAC0024CEA5070B2F1004F66
:100A700040EB830008BF20F00100704711F0804F69
:100A800021D113F13872BCBF01F00040704741F42E
:100A900080114FEA5252C2F11802C2F1200C10FA32
:100AA0000CF320FA02F018BF40F001004FEAC12316
:100AB0004FEAD32303FA0CFC40EA0C0023FA02F3BA
:100AC0004FEA4303CCE77FEA625307D150EA013390
:100AD0001EBF4FF0FE4040F44000704701F0004060
:100AE00040F0FE4040F40000704700BF80F000403E
:100AF00002E000BF81F0004142001FBF5FEA4103F6
:100B000092EA030F7FEA226C7FEA236C6AD04FEAF5
:100B10001262D2EB1363C1BFD2184140484041403A
:100B2000B8BF5B42192B88BF704710F0004F40F4EC
:100B3000000020F07F4018BF404211F0004F41F408
:100B4000000121F07F4118BF494292EA030F3FD0D4
:100B5000A2F1010241FA03FC10EB0C00C3F12003E7
:100B600001FA03F100F0004302D5494260EB400076
:100B7000B0F5000F13D3B0F1807F06D340084FEAE1
:100B8000310102F10102FE2A51D2B1F1004F40EBD6
:100B9000C25008BF20F0010040EA0300704749003E
:100BA00040EB0000013A28BFB0F5000FEDD2B0FADB
:100BB00080FCACF1080CB2EB0C0200FA0CF0AABFFE
:100BC00000EBC25052421843BCBFD040184370479C
:100BD00092F0000F81F4000106BF80F400000132A2
:100BE000013BB5E74FEA41037FEA226C18BF7FEA79
:100BF000236C21D092EA030F04D092F0000F08BFBB
:100C00000846704790EA010F1CBF0020704712F0A1
:100C10007F4F04D1400028BF40F00040704712F1E0
:100C200000723CBF00F50000704700F0004343F045
:100C3000FE4040F4000070477FEA226216BF08467B
:100C40007FEA23630146420206BF5FEA412390EA3E
:100C5000010F40F4800070474FF0000304E000BF34
:100C600010F0004348BF40425FEA000C08BF7047E5
:100C700043F0964301464FF000001CE050EA0102A9
:100C800008BF70474FF000030AE000BF50EA0102BE
:100C900008BF704711F0004302D5404261EB4101AB
:100CA0005FEA010C02BF84460146002043F0B643D0
:100CB00008BFA3F18053A3F50003BCFA8CF2083AF5
:100CC000A3EBC25310DB01FA02FC634400FA02FCFE
:100CD000C2F12002BCF1004F20FA02F243EB020005
:100CE00008BF20F00100704702F1200201FA02FC67
:100CF000C2F1200250EA4C0021FA02F243EB02005A
:100D000008BF20EADC7070474FF0FF0C1CEAD0529D
:100D10001EBF1CEAD15392EA0C0F93EA0C0F6FD05E
:100D20001A4480EA010C400218BF5FEA41211ED03C
:100D30004FF0006343EA501043EA5111A0FB013128
:100D40000CF00040B1F5000F3EBF490041EAD371FD
:100D50005B0040EA010062F17F02FD2A1DD8B3F179
:100D6000004F40EBC25008BF20F00100704790F0E8
:100D7000000F0CF0004C08BF49024CEA502040EA3A
:100D800051207F3AC2BFD2F1FF0340EAC250704700
:100D900040F400004FF00003013A5DDC12F1190F3E
:100DA000DCBF00F000407047C2F10002410021FAB0
:100DB00002F1C2F1200200FA02FC5FEA310040F1C8
:100DC000000053EA4C0308BF20EADC70704792F041
:100DD000000F00F0004C02BF400010F4000F013A79
:100DE000F9D040EA0C0093F0000F01F0004C02BF74
:100DF000490011F4000F013BF9D041EA0C018FE7E3
:100E00000CEAD15392EA0C0F18BF93EA0C0F0AD0E8
:100E100030F0004C18BF31F0004CD8D180EA01000E
:100E200000F00040704790F0000F17BF90F0004FA7
:100E3000084691F0000F91F0004F14D092EA0C0F89
:100E400001D142020FD193EA0C0F03D14B0218BF1C
:100E5000084608D180EA010000F0004040F0FE4062
:100E600040F40000704740F0FE4040F440007047FE
:100E70004FF0FF0C1CEAD0521EBF1CEAD15392EA7D
:100E80000C0F93EA0C0F69D0A2EB030280EA010C6D
:100E900049024FEA402037D04FF0805343EA111106
:100EA00043EA10130CF000408B4238BF5B0042F164
:100EB0007D024FF4000C8B4224BF5B1A40EA0C0009
:100EC000B3EB510F24BFA3EB510340EA5C00B3EB3B
:100ED000910F24BFA3EB910340EA9C00B3EBD10F29
:100EE00024BFA3EBD10340EADC001B0118BF5FEA7B
:100EF0001C1CE0D1FD2A3FF650AF8B4240EBC250A4
:100F000008BF20F0010070470CF0004C4CEA502064
:100F10007F32C2BFD2F1FF0340EAC250704740F4B3
:100F200000004FF00003013A37E792F0000F00F0A5
:100F3000004C02BF400010F4000F013AF9D040EA23
:100F40000C0093F0000F01F0004C02BF490011F4B7
:100F5000000F013BF9D041EA0C0195E70CEAD153AF
:100F600092EA0C0F08D142027FF47DAF93EA0C0F96
:100F70007FF470AF084676E793EA0C0F04D14B027A
:100F80003FF44CAF08466EE730F0004C18BF31F02C
:100F9000004CCAD130F000427FF45CAF31F0004326
:100FA0007FF43CAF5FE700BF4FF0FF3C06E000BFBF
:100FB0004FF0010C02E000BF4FF0010C4DF804CDE2
:100FC0004FEA40024FEA41037FEA226C18BF7FEAF2
:100FD000236C11D001B052EA530C18BF90EA010FF4
:100FE00058BFB2EB030088BFC81738BF6FEAE17083
:100FF00018BF40F0010070477FEA226C02D15FEA1F
:10100000402C05D17FEA236CE4D15FEA412CE1D08A
:101010005DF8040B704700BF844608466146FFE751
:101020000FB5FFF7C9FF002848BF10F1000F0FBD33
:101030004DF808EDFFF7F4FF0CBF012000205DF82C
:1010400008FB00BF4DF808EDFFF7EAFF34BF0120B1
:1010500000205DF808FB00BF4DF808EDFFF7E0FF4A
:1010600094BF012000205DF808FB00BF4DF808ED9B
:10107000FFF7D2FF94BF012000205DF808FB00BFFE
:101080004DF808EDFFF7C8FF34BF012000205DF8E0
:1010900008FB00BF4FEA40024FEA41037FEA226C9F
:1010A00002D15FEA402C08D17FEA236C02D15FEACB
:1010B000412C02D14FF0000070474FF00100704703
:1010C0004FEA4002B2F1FE4F0FD34FF09E03B3EB55
:1010D00012620DD94FEA002343F0004310F0004F95
:1010E00023FA02F018BF404270474FF000007047EB
:1010F00012F1610F01D1420205D110F0004008BF8A
:101100006FF0004070474FF0000070477BB972B934
:101110000029BEBF00204FF0004106E008BF0028B4
:101120001CBF6FF000414FF0FF3000F0EFB9ADF1A0
:10113000080C6DE904CE002909DB002B1ADB00F056
:101140006BF8DDF804E0DDE9022304B070474042AB
:1011500061EB4101002B1BDB00F05EF8DDF804E0E1
:10116000DDE9022304B0404261EB4101524263EBEE
:1011700043037047524263EB430300F04DF8DDF840
:1011800004E0DDE9022304B0404261EB4101704715
:10119000524263EB430300F03FF8DDF804E0DDE981
:1011A000022304B0524263EB4303704738B5002278
:1011B000002304460D46FFF701FC28B920462946C6
:1011C000BDE8384000F00AB8204605F1004100F0C3
:1011D00005F8404261EB410138BD00BFD0B50022A7
:1011E0000B4B06460F46FFF777F9FFF70FFC044657
:1011F000FFF7F8F80022074BFFF76EF902460B469F
:1012000030463946FEF7B0FFFFF700FC2146D0BD5F
:101210000000F03D0000F0412DE9F047089D0F4629
:1012200004468E46002B48D18A42164661D9B2FA4E
:1012300082F24AB1C2F1200301FA02FE20FA03F35E
:10124000964043EA0E0E94404FEA164CBEFBFCF16A
:10125000B7B20CFB11EE01FB07F0230C43EA0E437F
:10126000984209D9F31801F1FF3E80F0ED809842D1
:1012700040F2EA80023933441B1AB3FBFCF00CFB4A
:10128000103300FB07F7A4B244EA0344A74209D98C
:10129000341900F1FF3380F0D980A74240F2D680A4
:1012A0003444023840EA01400021E41B1DB1002310
:1012B000D440C5E90043BDE8F0878B4206D90DB1A3
:1012C000C5E9000100210846BDE8F087B3FA83F1C3
:1012D000002947D1BB4202D3824200F20481841A22
:1012E00067EB030201209646002DE4D0C5E9004ECD
:1012F000E1E7002A00F09080B2FA82F2002A40F082
:10130000A780881B0121370C1FFA86FEB0FBF7FC73
:1013100007FB1C00230C43EA00430EFB0CF0984231
:1013200007D9F3180CF1FF3802D2984200F2E0809E
:10133000C4461B1AB3FBF7F007FB10330EFB00FE8D
:10134000A4B244EA0344A64507D9341900F1FF3397
:1013500002D2A64500F2C9801846A4EB0E0440EA6A
:101360000C40A3E7C1F120068B4022FA06FC4CEAB0
:10137000030C27FA06FA4FEA1C49BAFBF9F88F402A
:1013800020FA06F309FB18AA1FFA8CFE3B4300FA69
:1013900001F708FB0EF01C0C44EA0A44A04202FAD2
:1013A00001F20BD91CEB040408F1FF3A80F099809C
:1013B000A04240F29680A8F102086444241A98B230
:1013C000B4FBF9F309FB134403FB0EFE40EA0444AB
:1013D000A64508D91CEB040403F1FF307FD2A645D3
:1013E0007DD9023B644443EA0840A4EB0E04A0FB11
:1013F000028E74454346F14661D35ED055B1FA1A68
:1014000064EB090404FA06F622FA01F31E43CC4009
:10141000C5E9006400214EE743084FEA510C43EA56
:10142000C1710A0C42EA0C428BB2C407B2FBF6F15E
:1014300043EA0243BCFBF6FCB646304637461F2261
:10144000181A41EA0C4161E7714615E7184629E789
:10145000C2F1200321FA03F0964024FA03F39740E7
:101460003B43370CB0FBF7F807FB18001FFA86FE6A
:10147000190C41EA004108FB0EF0884204FA02F41C
:101480003AD9711808F1FF3C01D288421ED8091AD6
:10149000B1FBF7F808FB0EF007FB18119BB243EA0B
:1014A000014383422FD2F31808F1FF31C8D283429F
:1014B000C6D2A8F102013344C2E747459ED2B8EB39
:1014C00002036EEB0C0E0138F14697E7301A014427
:1014D000A8F1020CB1FBF7F808FB0EF0DCE70346BD
:1014E00081E7D0466AE70846FEE63444023834E72E
:1014F000ACF1020C33441CE7091AC446B1FBF7F8FF
:1015000008FB0EF0C8E741469AE700BF704700BFEE
:1015100080B582B000AF104B5B690F4A43F0010306
:1015200053610D4B5B6903F001037B607B68002214
:1015300000210C2003F046F90C2003F06FF9002283
:101540000021102003F03EF9102003F067F900BFDE
:101550000837BD4680BD00BF0010024080B588B08E
:1015600000AF07F1100300221A605A609A60DA6037
:10157000244B9B69234A43F010039361214B9B69E1
:1015800003F01003FB60FB681E4B9B691D4A43F090
:10159000200393611B4B9B6903F02003BB60BB6876
:1015A000184B9B69174A43F004039361154B9B69E1
:1015B00003F004037B607B68124B9B69114A43F084
:1015C000080393610F4B9B6903F008033B603B6882
:1015D00000224FF400510C4803F012FF4FF4005367
:1015E0003B6101237B610023BB610223FB6107F1A7
:1015F00010031946044803F095FC00BF2037BD4690
:1016000080BD00BF001002400010014080B584B0D2
:1016100000AFF860B9607A607B689AB26423B968F9
:10162000064804F067FD0346002B01D07B6800E00C
:101630007B6818461037BD4680BD00BF28050020D6
:1016400080B584B000AFF860B9607A600D4B1B784C
:10165000002B13D10C4ABB6813600C4A7B681360E3
:10166000084B01221A70F868FEF772FD03469BB220
:101670001A46F968064804F0EDFD00E000BF103797
:10168000BD4680BD180500201C0500202005002057
:10169000B805002090B583B000AF78607B681B6808
:1016A0000D4A934213D10D4B1B6801330B4A136053
:1016B0000B4B1C7802F090FF03461A46214609485E
:1016C00002F040FE01220649074804F09EFD00BFDB
:1016D0000C37BD4690BD00BF00440040F80100201B
:1016E000F4010020FC0100207005002090B583B0BB
:1016F00000AF78607B681B681D4A934233D11D4B55
:101700001B78032B2AD0032B2CDC012B02D0022BBD
:1017100012D027E0174B02221A70174B1C68164B89
:101720001B681846FEF714FD03469BB21A46214675
:10173000124804F08FFD16E00E4B03221A70104B76
:101740001C680F4B1B681846FEF702FD03469BB250
:101750001A462146094804F07DFD04E0054B0022AD
:101760001A7000E000BF00BF0C37BD4690BD00BF3F
:1017700000480040180500201C050020B805002086
:101780002005002080B586B000AF78607B681B68BC
:101790001B4A934225D100237B617B681B681B6831
:1017A0007B617B681B685B687B617B6900233B61B5
:1017B0007B681B681B683B617B681B685B683B61DF
:1017C0003B690023FB607B681B681B68FB607B68D0
:1017D0001B685B68FB60FB6801220A490A4804F049
:1017E00014FD7B681B68094A934205D1084804F040
:1017F000A1FD084B00221A7000BF1837BD4680BDFE
:1018000000440040F4010020700500200048004022
:10181000B8050020180500202DE9F041B6B00EAF44
:1018200002F082FE00F0AAFCFFF798FEFFF770FEC0
:1018300000F02CFE00F054FE00F07CFEB64802F0F2
:101840007BFC0422B549B64800F0C2FFB54802F05F
:1018500087FA0122B449B54804F0D7FC02F0BCFE77
:101860000346B34A1360B34806F06AFBB24806F079
:1018700067FBB24806F064FB0421B14806F0F8FAB1
:101880000023C7F89C30A1E0A449D7F89C20134658
:101890005B0013449B000B441B68AA491846FFF7E2
:1018A00033FA03464FF07C511846FFF725F90346FB
:1018B0001846FFF705FC03463B679849D7F89C207C
:1018C00013465B0013449B000B4404331B689D4983
:1018D0001846FFF719FA03464FF07C511846FFF7F8
:1018E0000BF903461846FFF7EBFB0346FB668B49F3
:1018F000D7F89C2013465B0013449B000B4408332D
:101900001B6890491846FFF7FFF903464FF07C51DA
:101910001846FFF7F1F803461846FFF7D1FB0346D8
:10192000BB66D7F89C3003F1010C3B6F864A82FB03
:1019300003125211DB17A2EB030E3B6F002BB8BF53
:101940005B42814A82FB03125111DA17881A642222
:1019500000FB02F2981AFB6E7B4A82FB03125211C3
:10196000DB17D41AFB6E83EAE372A2EBE372764BC9
:1019700083FB02135911D317CB1A642101FB03F324
:10198000D31ABA6E704981FB02514911D2178D1AD0
:10199000BA6E82EAE271A1EBE2716B4A82FB0162EC
:1019A0005611CA17B21A642606FB02F28A1A03926B
:1019B000029501930094034672466146634806F01F
:1019C00057FAD7F89C300133C7F89C30D7F89C30D1
:1019D000032B7FF759AF4FF496635D4A5D495E482C
:1019E00006F046FA5D4806F0ABFA02F0F5FDC7F8DE
:1019F00098005B4B1B68D7F89820D31A132B40F242
:101A00007383574AD7F89830136007F15801D7F815
:101A100098300422404802F009FD07F15801D7F838
:101A20009830504A3E4801F0F1FBC7F89400D7F8CF
:101A30009430002B40F374824B4B1B6801334A4AAD
:101A4000136007F1500107F1540207F140030393BB
:101A500007F14403029307F14803019307F14C0394
:101A600000930B46D7F898102D4801F01BFD7B6DB5
:101A70007A6D11461846FFF7DBFA0346002B3ED07D
:101A80007B6D4FF000011846FFF73EF903464FF01B
:101A900000011846FFF7CCFA0346002B2FD03B6D10
:101AA0003A6D11461846FFF7C3FA0346002B26D0BD
:101AB0003B6D4FF000011846FFF726F903464FF043
:101AC00000011846FFF7B4FA0346002B17D0FB6C51
:101AD000FA6C11461846FFF7ABFA0346002B0ED0FE
:101AE000FB6C4FF000011846FFF70EF903464FF06C
:101AF00000011846FFF79CFA0346002B3AD1042256
:101B00000649074800F064FE184B00221A60184886
:101B100006F016FA40E000BFFC0100208CB9000876
:101B20008002002080030020F401002070050020C6
:101B300014050020A0B40008CCB40008FCB40008D0
:101B400028B500080000C8421F85EB5138B50008D1
:101B500088B6E746F855241360B5000888B5000834
:101B6000040500206002002008050020F804002081
:101B7000A4B500087B6D624A13603B6D614A136037
:101B8000FB6C614A1360BB6C604A13607B6C604AFB
:101B90001360604B01221A60594B1868594B196841
:101BA000594B1A6807F13403049307F13803039380
:101BB00007F13C0302934FF496630193564B009355
:101BC000564B02F019F84E4B1B6855491846FFF763
:101BD0009BF803461C464A4B1B684FF00001184611
:101BE000FFF744FA0346002B02D04FF07C5301E08C
:101BF0004FF03F4321461846FEF77EFF0346184646
:101C0000FFF75EFA0346C7F890303E4B1B68444925
:101C10001846FFF779F803461C463A4B1B684FF00D
:101C200000011846FFF722FA0346002B02D04FF0BE
:101C30007C5301E04FF03F4321461846FEF75CFF1E
:101C400003461846FFF73CFA0346C7F88C302E4B84
:101C50001B6833491846FFF757F803461C462A4BC2
:101C60001B684FF000011846FFF700FA0346002BEF
:101C700002D04FF07C5301E04FF03F43214618461D
:101C8000FEF73AFF03461846FFF71AFA0346C7F86D
:101C900088301E4B1B6822491846FFF735F803466B
:101CA0001C461A4B1B684FF000011846FFF7DEF97F
:101CB0000346002B02D04FF07C5301E04FF03F432E
:101CC00021461846FEF718FF03461846FFF7F8F9B5
:101CD0000346C7F884300E4B1B6811491846FFF7BE
:101CE00013F803461C460A4B1B684FF000011846C8
:101CF000FFF7BCF90346002B14D04FF07C5313E0E0
:101D0000E8040020EC04002000000020F004002083
:101D1000F4040020F804002088B6E746F8552413A0
:101D20000000C8424FF03F4321461846FEF7E4FE4C
:101D300003461846FFF7C4F90346C7F88030D7F8C2
:101D40009830724AA2FB03234FEA931ED7F89030D3
:101D50006F4A82FB03125211DB17A2EB0308D7F87C
:101D60009030002BB8BF5B42694A82FB03125111CD
:101D7000DA17A1EB020C642202FB0CF2A3EB020CBB
:101D8000D7F88C30624A82FB03125211DB17D31A48
:101D90007B62D7F88C30002BB8BF5B425C4A82FB79
:101DA00003125111DA178C1A642204FB02F29C1AF6
:101DB000D7F88830564A82FB03125211DB17D21A29
:101DC0003A62D7F88830002BB8BF5B42504A82FB9A
:101DD00003125111DA178D1A642205FB02F29D1AC3
:101DE000D7F884304A4A82FB03125211DB17D11A0A
:101DF000F961D7F88430002BB8BF5B42444A82FBBC
:101E000003125111DA178E1A642206FB02F29E1A8F
:101E1000D7F880303E4A82FB03125211DB17D01AEA
:101E2000B861D7F88030002BB8BF5B42384A82FBDC
:101E300003125111DA178A1A1146642201FB02F2C9
:101E40009B1A7B61FB6B334A82FB03129215DB17F3
:101E5000D21A3A61F96B2F4B83FB01239A15CB17EA
:101E6000D31A2D4A02FB03F3CB1A83EAE371A1EBE9
:101E7000E371F960B96B274B83FB01239A15CB17EC
:101E8000D11AB960B96B234B83FB01239A15CB1789
:101E9000D31A214A02FB03F3CB1A83EAE370A0EBC7
:101EA000E3707860796B194B83FB01239A11CB1790
:101EB000D01A796B154B83FB01239A11CB17D31AD8
:101EC0004FF47A7202FB03F3CB1A002BB8BF5B42CC
:101ED0000D930C9078680B90B8680A90F968099196
:101EE0003A6908927B690793B86906900596F96983
:101EF000049103953A6A029201947B6A00936346C7
:101F000042467146054805F0B3FF16E0D34D621016
:101F10001F85EB516BCA5F6B80969800C8B50008AF
:101F2000D7F89810714802F041FA0346022B04DDFD
:101F30006F4B1B6801336E4A13606E4B1B68D7F8FA
:101F40009820D31AC72B40F28A806A4AD7F8983073
:101F50001360694B1B78002B40F0818007F12C0146
:101F600007F1300207F1280300930B46D7F89810C9
:101F7000624801F007FB624B1868624B1C68624BB9
:101F80001D68624B1B68624A1268D7F89810614E50
:101F9000A6FB01618909604E08960C26079601266A
:101FA000069605914FF4966104915C4903915C4952
:101FB0000291019200932B4622460146594801F0B6
:101FC000E3FE584802F096F8F867564802F09CF88D
:101FD000B867544802F0A3F878677A6FB96FF86F62
:101FE000FFF72EFB504B1B6801334F4A13604F4BDA
:101FF0001B6801334D4A13604B4B1B68012B0ED1FC
:102000004B4805F09DFFF96F4A4805F031FFB96F65
:10201000484805F02DFF796F474805F029FF424BEE
:102020001968464BA3FB0123DA0813469B001344AF
:102030009A001344CA1A002A11D13B4B1C683D6B0D
:10204000FE6ABB6A1846FEF7EFF902460B46CDE979
:10205000002333462A462146394805F009FF394B0B
:102060001B68D7F89820D31A41F2873293427FF643
:10207000BCAC344AD7F898301360334805F060FFA1
:10208000324B1B681A4A12681946314805F0F0FEB7
:10209000264B1B68184A127819462E4805F0E8FEB0
:1020A0002D4B1C68D7F89810104802F07FF90346B2
:1020B0001A462146294805F0DBFE294B1B68294AB0
:1020C00012681946284805F0D3FE284B1B68002BE0
:1020D00006D02749274805F0CBFE244B00221A6082
:1020E000254805F02DFF80E400BF7EE4FC010020C0
:1020F0000C050020000500201805002080020020AB
:10210000E8040020EC04002000000020F00400207F
:10211000F4040020D34D62106666663F88B6E74639
:10212000F855241380030020FC0400201005002033
:1021300028B6000848B6000850B600081F85EB51C5
:102140005CB600081405002090B6000808050020C1
:10215000A8B60008D0B60008F8010020F4B60008C0
:10216000D0060020D40600201CB70008CC060020B2
:102170008C06002038B7000848B7000880B590B03A
:1021800000AF07F1180328220021184605F0ECFFE4
:102190003B1D00221A605A609A60DA601A610123BE
:1021A000BB614FF48033FB6100233B620123BB62C0
:1021B00002237B634FF48033BB634FF4E013FB6374
:1021C00007F11803184603F047F90346002B01D026
:1021D00000F019F80F237B600223BB600023FB6033
:1021E0004FF480633B6100237B613B1D0221184655
:1021F00003F0A0FC0346002B01D000F004F800BF60
:102200004037BD4680BD80B400AF72B600BF00BF8E
:10221000FDE780B483B000AF7860396000BF0C3751
:10222000BD4680BC7047000080B485B000AF154B40
:102230009B69144A43F001039361124B9B6903F0BD
:102240000103BB60BB680F4BDB690E4A43F0805350
:10225000D3610C4BDB6903F080537B607B680A4BD6
:102260005B68FB60FB6823F0E063FB60FB6843F0A6
:102270000073FB60044AFB68536000BF1437BD461F
:1022800080BC7047001002400000014080B400AFE5
:1022900000BFFDE780B400AF00BFFDE780B400AF32
:1022A00000BFFDE780B400AF00BFFDE780B400AF22
:1022B00000BFFDE780B400AF00BFBD4680BC7047E3
:1022C00080B400AF00BFBD4680BC704780B400AF93
:1022D00000BFBD4680BC704780B500AF02F06AF910
:1022E00000BF80BD80B500AF024802F0DDFC00BF3A
:1022F00080BD00BF4406002080B500AF024802F058
:10230000D3FC00BF80BD00BF0006002080B500AF39
:10231000024804F077F800BF80BD00BF70050020C0
:1023200080B500AF024804F06DF800BF80BD00BF6B
:10233000B805002080B400AF01231846BD4680BC1C
:10234000704780B582B000AF7860396005F07AFFE1
:10235000034616221A604FF0FF3318460837BD4671
:1023600080BD80B582B000AF78604FF0FF317868F3
:10237000FFF7E7FF00BFFDE780B586B000AFF8606C
:10238000B9607A6000237B610AE0AFF30080014608
:10239000BB685A1CBA60CAB21A707B6901337B6190
:1023A0007A697B689A42F0DB7B6818461837BD462D
:1023B00080BD80B483B000AF78604FF0FF33184623
:1023C0000C37BD4680BC704780B483B000AF7860E6
:1023D00039603B684FF400525A60002318460C37AE
:1023E000BD4680BC704780B483B000AF78600123E5
:1023F00018460C37BD4680BC704780B485B000AF2E
:10240000F860B9607A60002318461437BD4680BC76
:102410007047000080B586B000AF7860144A154B55
:10242000D31A7B617B693B61134B1B68002B02D184
:10243000114B124A1A60104B1A687B6813443A69B0
:102440009A4207D205F0FEFE03460C221A604FF0B6
:10245000FF3309E0084B1B68FB60074B1A687B6879
:102460001344054A1360FB6818461837BD4680BD03
:10247000005000200004000024050020280800204F
:1024800080B400AF00BFBD4680BC704780B500AFD0
:10249000114B124A1A60104B4FF4E1325A600E4B46
:1024A00000229A600C4B0022DA600B4B00221A616A
:1024B000094B0C225A61084B00229A61064B0022FC
:1024C000DA61054803F06AFD0346002B01D0FFF7EF
:1024D0009AFE00BF80BD00BF2805002000380140E3
:1024E00080B500AF114B124A1A60104B4FF4E13225
:1024F0005A600E4B00229A600C4B0022DA600B4BA4
:1025000000221A61094B0C225A61084B00229A6181
:10251000064B0022DA61054803F040FD0346002B1C
:1025200001D0FFF770FE00BF80BD00BF7005002026
:102530000044004080B500AF114B124A1A60104BA6
:102540004FF461425A600E4B00229A600C4B0022FD
:10255000DA600B4B00221A61094B0C225A61084BBE
:1025600000229A61064B0022DA61054803F016FD4D
:102570000346002B01D0FFF746FE00BF80BD00BF21
:10258000B80500200048004080B58CB000AF7860EE
:1025900007F1200300221A605A609A60DA607B68B3
:1025A0001B68814A934232D1804B9B697F4A43F436
:1025B000804393617D4B9B6903F48043FB61FB691E
:1025C0007A4B9B69794A43F004039361774B9B698B
:1025D00003F00403BB61BB694FF400733B62022349
:1025E0007B620323FB6207F120031946704802F067
:1025F00099FC4FF480633B6200237B620023BB6243
:1026000007F1200319466A4802F08CFCC8E07B6899
:102610001B68684A93425ED1644BDB69634A43F4AA
:102620000033D361614BDB6903F400337B617B6969
:102630005E4B9B695D4A43F0040393615B4B9B696E
:1026400003F004033B613B6904233B6202237B628A
:102650000323FB6207F120031946554802F062FC90
:1026600008233B6200237B620023BB6207F1200347
:1026700019464F4802F056FC4F4B504A1A604E4BD9
:1026800000225A604C4B00229A604B4B8022DA6049
:10269000494B00221A61484B00225A61464B2022C6
:1026A0009A61454B0022DA61434802F0DBF80346A9
:1026B000002B01D0FFF7A7FD7B683F4ADA633E4A53
:1026C0007B68536200220021262002F07BF826203E
:1026D00002F0A4F864E07B681B68394A93425FD13A
:1026E000324BDB69314A43F48023D3612F4BDB69E2
:1026F00003F48023FB60FB682C4B9B692B4A43F05F
:1027000008039361294B9B6903F00803BB60BB6816
:102710004FF480633B6202237B620323FB6207F179
:1027200020031946274802F0FDFB4FF400633B628B
:1027300000237B620023BB6207F120031946214876
:1027400002F0F0FB204B214A1A601F4B10225A6006
:102750001D4B00229A601C4B8022DA601A4B00222B
:102760001A61194B00225A61174B00229A61164BCD
:102770000022DA61144802F075F80346002B01D0FC
:10278000FFF741FD7B68104A9A630F4A7B685362EA
:1027900000220021272002F015F8272002F03EF841
:1027A00000BF3037BD4680BD0038014000100240F8
:1027B0000008014000440040000600206C00024078
:1027C00000480040000C0140440600201C0002406C
:1027D00080B58AB000AFF860B9607A604FF480725B
:1027E0000021F86805F0C0FCFB68BA681A60FB6855
:1027F0007A685A60FB684FF08242C3F8D820FB68C1
:102800004FF07C52C3F8DC20FB685B4AC3F8E02041
:10281000FB684FF08342C3F8E420FB68574AC3F8D3
:10282000E820FB68C822C3F8EC20FB684FF49672DE
:10283000C3F8F0204FF000037B624FF000033B62CF
:102840000023FB6120E0FA6913465B0013449B0000
:102850001A46BB6813441B681946786AFEF74CF9A0
:1028600003467B62FA6913465B0013449B001A46D9
:10287000BB6813445B681946386AFEF73DF90346A6
:102880003B62FB690133FB61FA697B689A42DADBE0
:102890007B68002B13DD7868FEF7E2F903461946E2
:1028A000786AFEF7E5FA03467B627868FEF7D8F9A6
:1028B00003461946386AFEF7DBFA03463B62FB68BB
:1028C0007A6A9A60FB683A6ADA60FB684FF07E5277
:1028D0001A61FB684FF00002DA61FB68DA69FB6895
:1028E0009A61FB689A69FB685A610023BB6118E032
:1028F00000237B610FE0F968BA6913465B0013445B
:102900005B007A69134408334FF0000241F823203A
:102910007B6901337B617B69052BECDDBB6901338E
:10292000BB61BB69052BE3DDFB68154A9A65FB6853
:102930009A6DFB68DA63FB68DA6BFB681A62FB6806
:102940004FF08142C3F8AC20FB68D3F8AC20FB68A1
:10295000C3F89020FB68D3F89020FB685A67FB68A7
:102960000022C3F8B020FB680022C3F8B42000BFE7
:102970002837BD4680BD00BF0AD7233D9A99193E2E
:102980000000C841B0B592B000AF786039604FF038
:1029900000013868FEF760FB0346002B40F0D6814B
:1029A0007B689C687B685B6939681846FEF7ACF900
:1029B000034619462046FEF79FF803461A467B68F1
:1029C0009A607B68DC687B689B6939681846FEF70B
:1029D0009BF9034619462046FEF78EF803461A4631
:1029E0007B68DA607B681C697B68DB69396818463C
:1029F000FEF78AF9034619462046FEF77DF803469E
:102A00001A467B681A617B682033BB6300237B64B2
:102A100052E0BB6B7A6C53F82240BB6B48337A6C44
:102A200053F8223039681846FEF76EF90346194606
:102A30002046FEF761F803461946BB6B7A6C43F8F3
:102A40002210BB6B18337A6C53F82250BB6B603387
:102A50007A6C53F8223039681846FEF755F9034668
:102A60001A46BB6B03F1180411462846FEF744F8DA
:102A700003461A467B6C44F82320BB6B30337A6CD8
:102A800053F82250BB6B78337A6C53F82230396894
:102A90001846FEF739F903461A46BB6B03F13004BA
:102AA00011462846FEF728F803461A467B6C44F880
:102AB00023207B6C01337B647B6C052BA9DD002319
:102AC0003B6471E03A6C13465B001344DB001A462A
:102AD000BB6B13441D683A6C13465B001344DB0068
:102AE0001A46BB6B1344DB6839681846FEF70CF9CD
:102AF000034619463A6C13465B001344DB001A4642
:102B0000BB6B9C182846FDF7F7FF034623603A6C21
:102B100013465B001344DB001A46BB6B13445D682D
:102B20003A6C13465B001344DB001A46BB6B13443C
:102B30001B6939681846FEF7E7F8034619463A6CF0
:102B400013465B001344DB001A46BB6B9C182846F7
:102B5000FDF7D2FF034663603A6C13465B001344F3
:102B6000DB001A46BB6B13449D683A6C13465B004E
:102B70001344DB001A46BB6B13445B693968184683
:102B8000FEF7C2F8034619463A6C13465B0013443D
:102B9000DB001A46BB6B9C182846FDF7ADFF0346C9
:102BA000A3603B6C01333B643B6C052B8ADD3968C9
:102BB0003868FEF7A9F803467B633968786BFEF73F
:102BC000A3F803463B63634B07F10C041D460FCD8E
:102BD0000FC495E8030084E803000023FB63B0E022
:102BE000FB6B012B03DC7B68D3F8D83002E07B68F9
:102BF000D3F8DC30FB62FB6BDB0048333B4453F81B
:102C00003C3CBB62FB6BDB0048333B4453F8383C35
:102C10007B62BA6A13465B001344DB001A46BB6B47
:102C20001344BA6A53F82250396BF86AFEF76CF80D
:102C3000034649491846FEF71BF903461946BA6A86
:102C400013465B001344DB001A46BB6B9C182846F6
:102C5000FDF752FF03461A46BB6A44F82320BA6ABE
:102C600013465B001344DB001A46BB6B13447A6ABD
:102C700053F82250796BF86AFEF746F803464FF096
:102C800080411846FEF7F4F803461946BA6A13461F
:102C90005B001344DB001A46BB6B9C182846FDF70B
:102CA0002BFF03461A467B6A44F823207A6A1346B0
:102CB0005B001344DB001A46BB6B1344BA6A53F83B
:102CC0002250796BF86AFEF71FF803464FF08041F7
:102CD0001846FEF7CDF8034619467A6A13465B009C
:102CE0001344DB001A46BB6B9C182846FDF704FF13
:102CF00003461A46BB6A44F823207A6A13465B00EF
:102D00001344DB001A46BB6B13447A6A53F8225013
:102D10003968F86AFDF7F8FF034619467A6A1346E0
:102D20005B001344DB001A46BB6B9C182846FDF77A
:102D3000E3FE03461A467B6A44F82320FB6B01330B
:102D4000FB63FB6B022B7FF74BAF00E000BF483704
:102D5000BD46B0BD4CB7000800004040B0B5AAB0B9
:102D600000AFF860B9607A60FB689868FB68196822
:102D7000BA6813465B0013449B000B441B6819465A
:102D8000FDF7B8FE0346C7F88830FB68D868FB68D3
:102D90001968BA6813465B0013449B000B445B68D8
:102DA0001946FDF7A7FE0346C7F88430FB6818698B
:102DB000FB681968BA6813465B0013449B000B4418
:102DC0009B681946FDF796FE0346C7F88030D7F892
:102DD0008810D7F88800FDF797FF03461C46D7F800
:102DE0008410D7F88400FDF78FFF0346194620466C
:102DF000FDF782FE03461C46D7F88010D7F8800006
:102E0000FDF782FF034619462046FDF775FE03468F
:102E1000184607F0ADF9F867A549F86FFEF712F903
:102E20000346002B01D00023ECE1F96FD7F88800AE
:102E3000FEF71EF80346BB67F96FD7F88400FEF76C
:102E400017F803467B67F96FD7F88000FEF710F894
:102E500003463B67FB682033FB660023C7F8A430BA
:102E600045E0D7F8A42013465B001344DB001A4664
:102E7000FB6E13441B68B96F1846FDF745FF034608
:102E80001C46D7F8A42013465B001344DB001A4607
:102E9000FB6E13445B68796F1846FDF735FF0346F8
:102EA00019462046FDF728FE03461C46D7F8A42005
:102EB00013465B001344DB001A46FB6E13449B6809
:102EC000396F1846FDF720FF034619462046FDF7E7
:102ED00013FE03461A46D7F8A4309B00A8333B44A0
:102EE00043F8642CD7F8A4300133C7F8A430D7F8DE
:102EF000A430052BB5DD7B6CB96F1846FDF704FFD8
:102F000003461C46BB6C796F1846FDF7FDFE034671
:102F100019462046FDF7F0FD03461C46FB6C396F51
:102F20001846FDF7F1FE034619462046FDF7E4FD7D
:102F300003461A46FB68D3F8E03019461046FDF701
:102F4000DBFD0346BB665B49B86EFEF77BF80346C4
:102F5000002B01D0002355E1F96F7868FDF7CAFD19
:102F600003467B66796E786EFDF7CEFE03461C46FF
:102F7000FB68D3F8E430B96E1846FDF7C5FE03468A
:102F800019462046FEF77CF80346002B01D00023AB
:102F900038E1B96E4FF07E50FDF76AFF03463B669D
:102FA0000023C7F8A03036E0D7F8A0309B00A83344
:102FB0003B4453F8643C396E1846FDF7A5FE0346C2
:102FC0001A46D7F8A0309B00A8333B4443F87C2C2A
:102FD000FB68D7F8A020023253F82240D7F8A0307F
:102FE0009B00A8333B4453F87C3C796E1846FDF7B0
:102FF0008BFE034619462046FDF77EFD0346194623
:10300000FB68D7F8A020023243F82210D7F8A0308E
:103010000133C7F8A030D7F8A030052BC4DD00235A
:10302000C7F89C3038E0FB6ED7F89C2053F822306C
:10303000B96F1846FDF768FE03461C46FB6E183351
:10304000D7F89C2053F82230796F1846FDF75CFEC4
:10305000034619462046FDF74FFD03461C46FB6E0E
:103060003033D7F89C2053F82230396F1846FDF7DB
:103070004BFE034619462046FDF73EFD03461A4621
:10308000D7F89C309B00A8333B4443F8942CD7F8E6
:103090009C300133C7F89C30D7F89C30052BC2DD3B
:1030A0000023C7F8983048E00023C7F894303BE08D
:1030B0006F12833A5F708930D7F8982013465B000F
:1030C0001344DB001A46FB6E1344D7F8942053F8E0
:1030D0002250D7F898309B00A8333B4453F87C2CFF
:1030E000D7F894309B00A8333B4453F8943C1946DE
:1030F0001046FDF709FE03461946D7F898201346F7
:103100005B001344DB001A46FB6E9C182846FDF753
:10311000F1FC03461A46D7F8943044F82320D7F838
:1031200094300133C7F89430D7F89430052BC3DDC1
:10313000D7F898300133C7F89830D7F89830052B76
:10314000B2DD0023C7F8903057E0D7F89030013354
:10315000C7F88C3048E0D7F8902013465B00134442
:10316000DB001A46FB6E1344D7F88C2053F822007C
:10317000D7F88C2013465B001344DB001A46FB6E25
:103180001344D7F8902053F822301946FDF7B4FCC9
:1031900003464FF07C511846FDF7B6FD0346FB652C
:1031A000D7F88C2013465B001344DB001A46FB6EF5
:1031B0001A44D7F89030F96D42F82310D7F89010E0
:1031C0000B465B000B44DB001946FB6E0B44D7F843
:1031D000901052F82110D7F88C2043F82210D7F81D
:1031E0008C300133C7F88C30D7F88C30052BB2DD2A
:1031F000D7F890300133C7F89030D7F89030052BCE
:10320000A3DD01231846A837BD46B0BD80B598B0F0
:1032100000AFF860B9607A603B600023FB65002373
:10322000BB6540E0BB6D9B00BA6813441B684FF060
:1032300000011846FDF710FF0346002B2BD1BB6D94
:103240009B00BA6813441B6894491846FDF70EFFAB
:103250000346002B1FD1BB6D9B007A6813441B688B
:10326000FB63FB68BA6D2E3253F82230FA6B9A4238
:1032700013D03A68FB6BD21AFB68D3F8EC309A4251
:103280000DD2FB6D5A1CFA659B0060333B44BA6D4E
:1032900043F8502C04E000BF02E000BF00E000BF94
:1032A000BB6D0133BB65FB685B68BA6D9A4202DA9D
:1032B000BB6D072BB6DD01237B6539E07B6D9B0081
:1032C00060333B4453F8503C3B637B6D013B3B65B3
:1032D0000FE03B6D591C3B6D9B0060333B4453F842
:1032E000502C8B0060333B4443F8502C3B6D013B2A
:1032F0003B653B6D002B10DB3B6D9B0060333B441B
:1033000053F8503C9B007A6813441A683B6B9B004F
:1033100079680B441B689A42DBD83B6D01339B00F4
:1033200060333B443A6B43F8502C7B6D01337B6533
:103330007A6DFB6D9A42C1DBFB68D3F8B030002B8D
:1033400011D1FB6D002B0CDDFB680122C3F8B0200E
:103350003B699B007A6813441A68FB68C3F8B42081
:1033600001E0002396E00023FB640023BB6460E0DF
:10337000BB6C9B0060333B4453F8503CBB63BB6B5E
:103380009B007A6813441B687B634FF000037B64E7
:10339000FB68D3F8B4307A6B9A420ED9FB68D3F845
:1033A000B4307A6BD31A1846FDF756FC03463C49F5
:1033B0001846FDF75DFD03467B644FF07C51786C49
:1033C000FDF75EFE0346002B02D04FF07C537B647A
:1033D000796CF868FFF7D6FAFB687A6BC3F8B4200B
:1033E000BB6B9B00BA6813441B681A46B96BF8683C
:1033F000FFF7B4FC0346002B0BD0FB6C0133FB64DE
:10340000FB680022C3F8F820FB687A6BC3F8F4204D
:1034100006E0FB68D3F8F8305A1CFB68C3F8F820C4
:10342000FB68BA6B2E32796B43F82210BB6C013308
:10343000BB64BA6CFB6D9A429ADBFB68FA6DC3F809
:10344000FC20FB68D3F8B4303A689A4221D9FB6873
:10345000D3F8B4303A68D31A1846FDF7FDFB03469B
:103460000F491846FDF704FD03463B644FF07C51BD
:10347000386CFDF705FE0346002B02D04FF07C535D
:103480003B64396CF868FFF77DFAFB683A68C3F86B
:10349000B420FB6C18466037BD4680BD0000484232
:1034A00000007A4490B587B000AFF860B9607A60E8
:1034B0003B604FF000037B61FB68D3F8B430BA681F
:1034C0009A420ED9FB68D3F8B430BA68D31A1846BA
:1034D000FDF7C2FB03462A491846FDF7C9FC03461F
:1034E0007B614FF07C517869FDF7CAFD0346002BE4
:1034F00002D04FF07C537B61FB689C68FB685B6982
:1035000079691846FDF700FC034619462046FDF789
:10351000F3FA03461A467B681A60FB68DC68FB68AE
:103520009B6979691846FDF7EFFB0346194620466B
:10353000FDF7E2FA03461A463B681A60FB681C690D
:10354000FB68DB6979691846FDF7DEFB034619461F
:103550002046FDF7D1FA03461A46BB6A1A60FB689B
:103560005A69FB6A1A60FB689A693B6B1A60FB68D0
:10357000DA697B6B1A6000BF1C37BD4690BD00BF87
:1035800000007A4480B58CB000AFF860B9607A6012
:103590003B600023FB620023BB6216E0FB68BA6A53
:1035A0002E3253F82230002B0CD0FB68BA6A2E3230
:1035B00053F82230BA68D31AB3F5967F02D2FB6A69
:1035C0000133FB62BB6A0133BB62FB685B68BA6AAA
:1035D0009A4202DABB6A072BE0DDFB681A6AFB68D5
:1035E000DB6B19461046FDF787FA03463B624FF046
:1035F0000001386AFDF744FD0346002B04D0386A09
:1036000006F0B6FD034601E04FF00003FB61FB68E6
:10361000D3F8E8301946F869FDF72AFC03467B62C7
:103620004FF07C51786AFDF70DFD0346002B02D068
:103630004FF07C537B623149786AFDF721FD0346E8
:10364000002B01D02D4B7B62FB68D3F8B030002BF0
:103650000BD0FB68D3F8F430BA68D21AFB68D3F801
:10366000F0309A4201D2012300E00023BB61BB6924
:10367000002B11D0FB6A022B0EDD4FF07F51F86951
:10368000FDF7E0FC0346002B06D0FB68D3F8F830CA
:10369000072B01DC012300E000237B617B68002B0A
:1036A00008D07B69002B14BF01230023DBB21A462C
:1036B0007B681A60BB6B002B02D0BB6B7A6A1A6006
:1036C0003B68002B15D07B69002B03D0FB6A0233CB
:1036D0005B0005E0FB6A002B01DD032300E0002313
:1036E0003A6813603B681B68132B02DD3B681322AA
:1036F0001A6000BF3037BD4680BD00BFCDCCC74289
:1037000080B58AB002AF786039604FF00001386848
:10371000FDF798FC0346002B02D04FF0FF3300E08A
:1037200001233B613B6823F00043FB60F868FDF731
:10373000C7FC0346FB61F869FDF792FA0346194698
:10374000F868FDF7D7F903461A491846FDF7DCFA81
:103750000346184606F0CEFD03461846FDF7B0FCBA
:103760000346BB61BB69092B04DDFB690133FB61C7
:103770000023BB6100237B613B69002B07DA7B6977
:103780005A1C7A611A467B6813442D221A707B6991
:103790007A68D018BB690093FB69074A082104F0D6
:1037A000D7FB02467B6913447B617B69184620374F
:1037B000BD4680BD0000204164B7000880B58AB0D6
:1037C00002AF786039604FF000013868FDF73AFCCD
:1037D0000346002B02D04FF0FF3300E001233B6192
:1037E0003B6823F00043FB60F868FDF769FC034683
:1037F000FB61F869FDF734FA03461946F868FDF7EE
:1038000079F903461A491846FDF77EFA0346184629
:1038100006F070FD03461846FDF752FC0346BB61F7
:10382000BB69632B04DDFB690133FB610023BB61D2
:1038300000237B613B69002B07DA7B695A1C7A61A4
:103840001A467B6813442D221A707B697A68D01857
:10385000BB690093FB69074A082104F079FB024623
:103860007B6913447B617B6918462037BD4680BD68
:103870000000C8426CB700082DE9B04F96B004AF05
:103880007861396111461A460B46FB731346BB73C8
:103890007B69002B01DBFB7B00E0BB7B87F83330CF
:1038A0007B69DA173B607A60D7E90023C7E9102308
:1038B000D7E91023002B08DAD7E910230021D2F131
:1038C000000861EB0309C7E91089D7E91001474AED
:1038D0004FF00003FDF71AFC02460B461346FB634C
:1038E000D7E91001414A4FF00003FDF70FFCC7E98B
:1038F0000A23D7E90A8942464B464FF000004FF0B1
:103900000001190141EA1271100102460B46B2EBA7
:10391000080463EB09054FF000024FF00003AB0011
:1039200043EA9473A20014461D46C7E90845D7E947
:1039300008012E4A4FF00003FDF7E8FB02460B4654
:103940001346BB63D7E90801284A4FF00003FDF78F
:10395000DDFBC7E90623D7E9062312F1050A43F187
:10396000000B4FF00A024FF0000350465946FDF796
:10397000CDFB02460B4613467B637B6B1C4A93428E
:1039800008DD7B6BA3F57423A3F510737B63BB6B1E
:103990000133BB63BB6B3B2B05DDBB6B3C3BBB63AC
:1039A000FB6B0133FB633B69032B0DD197F833307D
:1039B00002937B6B0193BB6B0093FB6B0D4A182149
:1039C000B86E04F0C5FA0CE097F8333002937B6BC5
:1039D0000193BB6B0093FB6B074A1821B86E04F090
:1039E000B7FA00BF4837BD46BDE8B08F8096980053
:1039F0003F420F0074B7000888B7000880B584B054
:103A000002AF786039603B68009353234E22022155
:103A10007868FFF731FF00BF0837BD4680BD80B52D
:103A200084B002AF786039603B6800935723452229
:103A300003217868FFF720FF00BF0837BD4680BD2F
:103A400080B485B000AF78600023FB730123BB60B6
:103A500009E0BB687A6813441A78FB7B5340FB7318
:103A6000BB680133BB60BB687A6813441B78002BCA
:103A700005D0BB687A6813441B782A2BE9D1FB7BFD
:103A800018461437BD4680BC7047000080B584B02E
:103A900000AF78607868FFF7D3FF0346FB73786860
:103AA000FCF756FB0346BB60BB687A68D018FB7B0B
:103AB000034A062104F04CFA00BF1037BD4680BD12
:103AC0009CB7000880B582B000AF786003223E4901
:103AD000786804F05EFB0346002B01D101236EE001
:103AE00003223A49786804F054FB0346002B01D1C5
:103AF000022364E003223649786804F04AFB034657
:103B0000002B01D103235AE003223249786804F0E4
:103B100040FB0346002B01D1042350E003222E4931
:103B2000786804F036FB0346002B01D1052346E0FC
:103B300003222A49786804F02CFB0346002B01D1AC
:103B400006233CE003222649786804F022FB034662
:103B5000002B01D1072332E003222249786804F0C8
:103B600018FB0346002B01D1082328E003221E493D
:103B7000786804F00EFB0346002B01D109231EE0F8
:103B800003221A49786804F004FB0346002B01D194
:103B90000A2314E003221649786804F0FAFA03466F
:103BA000002B01D10B230AE003221249786804F0AC
:103BB000F0FA0346002B01D10C2300E00123184644
:103BC0000837BD4680BD00BFA4B70008A8B70008ED
:103BD000ACB70008B0B70008B4B70008B8B7000821
:103BE000BCB70008C0B70008C4B70008C8B70008D1
:103BF000CCB70008D0B7000890B589B000AFF86026
:103C0000B9607A603B604F4BFB614F4B1B684FF0D4
:103C100000011846FDF70CFA0346002B1BD038684C
:103C2000FDF71EF8034649491846FDF721F90346FA
:103C3000BB614749B869FDF767F803467B6178695E
:103C400006F0B4FA03463F491846FDF75DF803460F
:103C50001A463D4B1A603C4B1B683B613D49B868B6
:103C6000FDF7F0F90346002B02D03A4BBB6008E0A9
:103C70003949B868FDF704FA0346002B01D0364BEA
:103C8000BB603449F868FDF7DDF90346002B02D02C
:103C9000304BFB6008E03049F868FDF7F1F9034666
:103CA000002B01D02C4BFB602A497868FDF7CAF93C
:103CB0000346002B02D0274B7B6008E0264978683A
:103CC000FDF7DEF90346002B01D0234B7B601F4933
:103CD000B868FDF719F80346F9691846FDF7C8F802
:103CE00003461846FDF7ECF902463B681A44BB6BE5
:103CF0001A601649F868FDF707F80346396918464F
:103D0000FDF7B6F803461846FDF7DAF902463B6BB5
:103D10001A44FB6B1A607A6B13469B0013445B00DA
:103D20001C460E497868FCF7EFFF03461846FDF77E
:103D3000C7F90346E2183B6C1A6000BF2437BD4642
:103D400090BD00BFF36BD947880600208096184BC2
:103D500035FA8E3C000020C10000204100007A446A
:103D600080B483B000AF78607B6800221A707B68F3
:103D7000002283F882207B68002283F8042100BFA0
:103D80000C37BD4680BC704790B5BFB008AFF86037
:103D9000B9607A603B60D7F80031002B02DA00236B
:103DA000C7F80031D7F80431002B02DA0023C7F836
:103DB0000431C249D7F80801FDF744F90346002B46
:103DC00002D0BE4BC7F80831D7F80031002B01DD17
:103DD000412300E0562387F8D33007F19C03049376
:103DE00007F1A003039307F1A4030293D7F8F83077
:103DF0000193D7F8F4300093D7F8F0303A68796837
:103E0000B868FFF7F9FED7F8A43007F1840211462D
:103E10001846FFF7F3FDD7F8A03007F16C02114602
:103E20001846FFF7FCFDD7F8FC30C7F8CC30D7F8C0
:103E3000CC30A34AA2FB0323D90AA24BA3FB012344
:103E40001A0913465B001344DB00CA1AC7F8C820DE
:103E5000D7F8CC309C4AA2FB032359099A4BA3FB09
:103E600001235A0913461B019B1A9B00CA1AC7F863
:103E7000C420D7F8CC10944BA3FB01235A09134656
:103E80001B019B1A9B00CA1AC7F8C02007F16000EB
:103E9000D7F8C0300193D7F8C4300093D7F8C830B2
:103EA0008A4A0A2104F054F83123202B08D0312308
:103EB000A3F1300213469B0013445B001A4600E056
:103EC00000223623303B1344C7F8BC308048FFF74C
:103ED000F9FDC7F8B8003223A3F1300213469B0066
:103EE00013445B001A463623303B1344C7F8B43002
:103EF00007F15000D7F8B4300193D7F8B8300093E9
:103F0000D7F8BC30714A102104F022F8D7F8E81035
:103F1000D7F8E800FCF7F8FE03461C46D7F8EC108B
:103F2000D7F8EC00FCF7F0FE034619462046FCF7F4
:103F3000E3FD0346184606F01BF90346654918469B
:103F4000FCF7E2FE0346C7F8B0306349D7F8B0008B
:103F5000FCF7DAFE0346C7F8AC30D7F8EC10D7F818
:103F6000E80006F003F903465C491846FCF7CCFE6E
:103F70000346C7F8D4304FF00001D7F8D400FDF75E
:103F800061F80346002B07D05549D7F8D400FCF759
:103F9000B3FD0346C7F8D430D7F89C301846FCF779
:103FA0005FFE03464F491846FCF762FF0346C7F819
:103FB000A83007F14403D7F8A8101846FFF7A0FB74
:103FC00007F13803D7F808111846FFF7F7FB07F198
:103FD0002C03D7F8B0101846FFF7F0FB07F12003C9
:103FE000D7F8D4101846FFF78BFB07F11403D7F866
:103FF000AC101846FFF7E2FBF86807F1600207F122
:104000004403059307F138030493D7F8043103936D
:10401000D7F80031029307F16C03019307F1840391
:1040200000931346304A822103F092FFFB68184642
:10403000FFF72CFDFB6803F1820097F8D330D7F827
:104040000021002A01DD412200E04E2207F160013B
:10405000069207F15002059207F12002049207F13F
:104060002C02039207F16C02029207F18402019282
:1040700000930B461D4A822103F06AFFFB688233DE
:104080001846FFF703FDFB6803F5827007F1200275
:1040900007F11403019307F12C0300931346144A0C
:1040A000642103F055FFFB6803F582731846FFF7A0
:1040B000EDFC00BFDC37BD4690BD00BFCDCCCC3D94
:1040C000C5B3A291ABAAAAAA89888888D4B70008E8
:1040D000E4B70008C0CFF83F560EED3FE12E654231
:1040E0000000B44300007A44F0B700081CB8000890
:1040F00048B8000880B483B000AF78607B68184689
:104100000C37BD4680BC704780B483B000AF786088
:104110007B68823318460C37BD4680BC704780B43C
:1041200083B000AF78607B6803F5827318460C3764
:10413000BD4680BC7047000080B485B000AF786099
:104140007B6800221A647B6800221A700023FB60DF
:1041500010E07A68FB6810339B0013440A4A5A60E7
:104160007A68FB6818339B00134400225A60FB688E
:104170000133FB60FB68072BEBDD00BF00BF14378A
:10418000BD4680BC704700BF000080BF80B58AB0CC
:1041900000AFF860B9607A60BB681B78242B18D137
:1041A000BB6801331B78442B13D1BB6802331B78E7
:1041B000492B0ED1BB6803331B78532B09D1BB6845
:1041C00004331B78542B04D1BB6805331B782C2B8C
:1041D0002AD0BB681B78002B1FD000237B620BE02A
:1041E0007B6ABA6813441978504A7B6A13440A46BA
:1041F0001A707B6A01337B627B6ABA6813441B784E
:10420000002B02D07B6A3E2BEADD484A7B6A1344CE
:1042100000221A70464B01221A60464B1B6801337C
:10422000444A136000237CE0434B1B680133424A3D
:104230001360BB6806333B622C21386A03F09CFF95
:10424000B861BB69002B01D100236AE0BB6901336F
:104250003B623B6A1B78532B01D0002361E03B6A31
:1042600001333B620023FB610DE0FA6913469B00BA
:1042700013445B001A463B6A1B78303B1344FB61D6
:104280003B6A01333B623B6A1B782F2B03D93B6AA5
:104290001B78392BE9D9FB69002B02DDFB69082B60
:1042A00001DD00233DE03B6A1B782C2B01D000236D
:1042B00037E03B6A01333B62386A02F011FF024685
:1042C0000B4610461946FCF7C1FB03467B614FF0D5
:1042D00000017869FCF7C0FE0346002B06D11749A0
:1042E0007869FCF7C3FE0346002B09D0FB69013B4C
:1042F000FA6810339B001344114A5A60012310E0FE
:10430000FB69013BFA6810339B0013447A695A60D9
:10431000FB69013BFA6818339B0013447A685A60C2
:10432000012318462837BD4680BD00BF8C060020FB
:10433000CC060020D4060020D00600200000484211
:10434000000080BF80B584B000AFF8600B467A6093
:10435000FB72FB7A0A2B02D0FB7A0D2B15D1FB687E
:104360001B6C002B0FDDFB681B6CFA680021D1541D
:10437000FB6800221A64FB687A681946F868FFF740
:1043800005FF03460EE000230CE0FB681B6C3E2B90
:1043900007DCFB681B6C591CFA681164FA68F97A2F
:1043A000D154002318461037BD4680BD80B584B077
:1043B00000AF786039600023FB600023BB602BE016
:1043C0007A68BB6810339B0013445B684FF00001B0
:1043D0001846FCF74BFE0346002B1AD07A68BB68E0
:1043E00010339B0013445B680F491846FCF72AFE04
:1043F0000346002B0DD07A68BB6818339B0013442A
:104400005B683A68D31AB3F5FA7F02D2FB680133CE
:10441000FB60BB680133BB60BB68072BD0DDFB686A
:1044200018461037BD4680BD0000484280B586B0B2
:1044300000AFF860B9607A603B6000237B610023C5
:104440003B613DE0FA683B6910339B0013445B68B5
:104450004FF000011846FCF709FE0346002B26D05A
:10446000FA683B6910339B0013445B68194918468E
:10447000FCF7E8FD0346002B19D0FA683B691833B6
:104480009B0013445B683A68D31AB3F5FA7F0ED2E7
:104490003B699B00BA681A44F9683B6910339B007A
:1044A0000B445B6813607B6901337B6105E03B690A
:1044B0009B00BA681344084A1A603B6901333B61A8
:1044C0003A697B689A42BDDB7B6918461837BD465E
:1044D00080BD00BF00004842000080BFFDF7D0FF54
:1044E0000B480C490C4A002302E0D458C450043352
:1044F000C4188C42F9D3094A094C002301E0136027
:104500000432A242FBD303F0A3FEFDF785F9704706
:1045100000000020D8010020C4C10008D8010020FC
:1045200028080020FEE7000080B500AF084B1B689C
:10453000074A43F010031360032000F023F90F2013
:1045400000F008F8FDF770FE0023184680BD00BF9C
:104550000020024080B582B000AF7860124B1A682C
:10456000124B1B7819464FF47A73B3FBF1F3B2FB8D
:10457000F3F3184600F06AF90346002B01D001233B
:104580000EE07B680F2B0AD8002279684FF0FF30CD
:1045900000F018F9064A7B681360002300E001234D
:1045A00018460837BD4680BD040000200C000020DE
:1045B0000800002080B400AF054B1B781A46054B5D
:1045C0001B681344034A136000BFBD4680BC70479C
:1045D0000C000020D806002080B400AF024B1B68FE
:1045E0001846BD4680BC7047D806002080B485B010
:1045F00000AF78607B6803F00703FB600C4BDB685F
:10460000BB60BA684FF6FF031340BB60FB681A0239
:10461000BB68134343F0BF6343F40033BB60044AF9
:10462000BB68D36000BF1437BD4680BC704700BF75
:1046300000ED00E080B400AF044BDB681B0A03F020
:1046400007031846BD4680BC704700BF00ED00E080
:1046500080B483B000AF0346FB7197F90730002B9D
:104660000BDBFB7903F01F02064997F907305B0962
:10467000012000FA02F241F8232000BF0C37BD46AA
:1046800080BC704700E100E080B483B000AF034617
:104690003960FB7197F90730002B0ADB3B68DAB20F
:1046A0000C4997F907301201D2B20B4483F800236A
:1046B0000AE03B68DAB20849FB7903F00F03043BD8
:1046C0001201D2B20B441A7600BF0C37BD4680BC33
:1046D000704700BF00E100E000ED00E080B489B069
:1046E00000AFF860B9607A60FB6803F00703FB6114
:1046F000FB69C3F10703042B28BF0423BB61FB69DB
:104700000433062B02D9FB69033B00E000237B61E5
:104710004FF0FF32BB6902FA03F3DA43BB681A4079
:104720007B699A404FF0FF317B6901FA03F3D9436B
:104730007B680B40134318462437BD4680BC704746
:1047400080B582B000AF78607B68013BB3F1807FB9
:1047500001D301230FE00A4A7B68013B53600F211C
:104760004FF0FF30FFF790FF054B00229A60044B9B
:1047700007221A60002318460837BD4680BD00BFD7
:1047800010E000E080B582B000AF78607B68072B56
:104790000FD07B68062B0CD07B68052B09D07B687B
:1047A000042B06D07B68032B03D091210448FDF72E
:1047B00030FD7868FFF71AFF00BF0837BD4680BD9F
:1047C00068B8000880B586B000AF0346B9607A606B
:1047D000FB7300237B617B680F2B03D9A9210E4853
:1047E000FDF717FDBB680F2B03D9AA210A48FDF777
:1047F00010FDFFF71FFF78617A68B9687869FFF7E5
:104800006DFF024697F90F3011461846FFF73CFF3F
:1048100000BF1837BD4680BD68B8000880B582B0BB
:1048200000AF0346FB7197F90730002B03DABD2177
:104830000548FDF7EEFC97F907301846FFF708FF2B
:1048400000BF0837BD4680BD68B8000880B582B09B
:1048500000AF78607868FFF773FF034618460837A3
:10486000BD4680BD80B584B000AF78600023FB609A
:104870007B68002B01D10123DAE07B681B686E4A5C
:10488000934221D07B681B686C4A93421CD07B68A2
:104890001B686B4A934217D07B681B68694A934236
:1048A00012D07B681B68684A93420DD07B681B68F6
:1048B000664A934208D07B681B68654A934203D0DE
:1048C00099216448FDF7A5FC7B685B68002B0CD040
:1048D0007B685B68102B08D07B685B68B3F5804F02
:1048E00003D09A215B48FDF794FC7B689B68402BC2
:1048F00007D07B689B68002B03D09B215548FDF7B0
:1049000088FC7B68DB68802B07D07B68DB68002B2A
:1049100003D09C214F48FDF77CFC7B681B69002B72
:104920000DD07B681B69B3F5807F08D07B681B695D
:10493000B3F5007F03D09D214648FDF76AFC7B68F4
:104940005B69002B0DD07B685B69B3F5806F08D085
:104950007B685B69B3F5006F03D09E213D48FDF78E
:1049600058FC7B689B69002B07D07B689B69202BD8
:1049700003D09F213748FDF74CFC7B68DB69002B97
:1049800012D07B68DB69B3F5805F0DD07B68DB6993
:10499000B3F5005F08D07B68DB69B3F5405F03D0F7
:1049A000A0212C48FDF735FC7B681B681A462A4B72
:1049B00013442A4AA2FB03231B099A007B681A644A
:1049C0007B68274ADA637B68022283F821207B68B0
:1049D0001B681B68FB60FB6823F47F5323F03003E4
:1049E000FB607B685A687B689B681A437B68DB685E
:1049F0001A437B681B691A437B685B691A437B68AF
:104A00009B691A437B68DB691343FA681343FB60B5
:104A10007B681B68FA681A607B6800229A637B686F
:104A2000012283F821207B68002283F820200023C4
:104A300018461037BD4680BD080002401C000240E9
:104A40003000024044000240580002406C00024026
:104A500080000240A4B80008F8FFFDBFCDCCCCCC4C
:104A60000000024080B586B000AFF860B9607A609F
:104A70003B600023FB753B68002B03D03B68B3F51C
:104A8000803F04D34FF4B7712C48FDF7C2FBFB689D
:104A900093F82030012B01D102234BE0FB68012267
:104AA00083F82020FB6893F82130DBB2012B3AD148
:104AB000FB68022283F82120FB6800229A63FB68CE
:104AC0001B681A68FB681B6822F001021A603B68C9
:104AD0007A68B968F86800F0F8F9FB68DB6A002BBF
:104AE00008D0FB681B681A68FB681B6842F00E025E
:104AF0001A600FE0FB681B681A68FB681B6822F0ED
:104B000004021A60FB681B681A68FB681B6842F0A5
:104B10000A021A60FB681B681A68FB681B6842F08F
:104B200001021A6005E0FB68002283F820200223BE
:104B3000FB75FB7D18461837BD4680BDA4B800083C
:104B400080B485B000AF78600023FB737B6893F876
:104B50002130DBB2022B08D07B6804229A637B6889
:104B6000002283F82020012320E07B681B681A685C
:104B70007B681B6822F00E021A607B681B681A684B
:104B80007B681B6822F001021A607B681A6C7B68E4
:104B9000DB6B012101FA02F25A607B68012283F883
:104BA00021207B68002283F82020FB7B18461437E5
:104BB000BD4680BC7047000080B584B000AF78600F
:104BC0000023FB737B6893F82130DBB2022B05D006
:104BD0007B6804229A630123FB7351E07B681B68A6
:104BE0001A687B681B6822F00E021A607B681B68DB
:104BF0001A687B681B6822F001021A607B681B68D8
:104C0000224A934229D07B681B68214A934222D0D2
:104C10007B681B681F4A93421AD07B681B681E4A38
:104C2000934212D07B681B681C4A93420AD07B686F
:104C30001B681B4A934202D14FF480130EE04FF0E1
:104C400080730BE04FF4803308E04FF4805305E0AD
:104C50004FF4807302E0102300E00123114A5360F7
:104C60007B68012283F821207B68002283F82020C2
:104C70007B685B6B002B03D07B685B6B7868984725
:104C8000FB7B18461037BD4680BD00BF08000240C0
:104C90001C00024030000240440002405800024024
:104CA0006C0002400000024080B584B000AF786024
:104CB0007B68DB6B1B68FB607B681B681B68BB60E9
:104CC0007B681B6C04229A40FB681340002B4FD07A
:104CD000BB6803F00403002B4AD07B681B681B6889
:104CE00003F02003002B07D17B681B681A687B68E0
:104CF0001B6822F004021A607B681B68664A9342B4
:104D000029D07B681B68654A934222D07B681B6868
:104D1000634A93421AD07B681B68624A934212D05E
:104D20007B681B68604A93420AD07B681B685F4AB5
:104D3000934202D14FF480030EE04FF080630BE00A
:104D40004FF4802308E04FF4804305E04FF4806384
:104D500002E0402300E00423554A53607B68DB6A8D
:104D6000002B00F094807B68DB6A786898478EE0BF
:104D70007B681B6C02229A40FB681340002B56D0C4
:104D8000BB6803F00203002B51D07B681B681B68D3
:104D900003F02003002B0BD17B681B681A687B682B
:104DA0001B6822F00A021A607B68012283F8212026
:104DB0007B681B68384A934229D07B681B68374A56
:104DC000934222D07B681B68354A93421AD07B6895
:104DD0001B68344A934212D07B681B68324A934264
:104DE0000AD07B681B68314A934202D14FF400130A
:104DF0000EE04FF000730BE04FF4003308E04FF487
:104E0000005305E04FF4007302E0202300E002238A
:104E1000274A53607B68002283F820207B689B6AC6
:104E2000002B34D07B689B6A786898472FE07B68BA
:104E30001B6C08229A40FB681340002B28D0BB68EB
:104E400003F00803002B23D07B681B681A687B687B
:104E50001B6822F00E021A607B681A6C7B68DB6BA1
:104E6000012101FA02F25A607B6801229A637B6891
:104E7000012283F821207B68002283F820207B68B0
:104E80001B6B002B04D07B681B6B7868984700BFB6
:104E900000BF1037BD4680BD080002401C00024024
:104EA0003000024044000240580002406C000240C2
:104EB0000000024080B483B000AF78607B689B6BD9
:104EC00018460C37BD4680BC704780B485B000AF33
:104ED000F860B9607A603B60FB681A6CFB68DB6B5A
:104EE000012101FA02F25A60FB681B683A685A60B5
:104EF000FB685B68102B08D1FB681B687A689A60B6
:104F0000FB681B68BA68DA6007E0FB681B68BA6870
:104F10009A60FB681B687A68DA6000BF1437BD4688
:104F200080BC704780B58AB000AF786039600023DC
:104F30007B6200233B627B68964A934213D07B6876
:104F4000954A93420FD07B68944A93420BD07B687A
:104F5000934A934207D07B68924A934203D0BD2183
:104F60009148FDF756F93B681B689BB2002B04D0B3
:104F70003B681B68B3F5803F03D3BE218A48FDF729
:104F800048F93B685B68002B00F01D823B685B685A
:104F9000012B00F018823B685B68112B00F0138234
:104FA0003B685B68022B00F00E823B685B68122B4B
:104FB00000F009823B685B687C4A934200F0038200
:104FC0003B685B687A4A934200F0FD813B685B680E
:104FD000784A934200F0F7813B685B68764A9342D7
:104FE00000F0F1813B685B68744A934200F0EB810A
:104FF0003B685B68724A934200F0E5813B685B68FE
:10500000032B00F0E081BF216748FDF702F9DAE1E8
:1050100001227B6A02FA03F3FB613B681B68FA69B1
:105020001340BB61BA69FB699A4240F0C9817B6851
:10503000584A934213D07B68574A93420FD07B68FB
:10504000564A93420BD07B68554A934207D07B68FF
:10505000544A934203D0CD215348FDF7DAF83B6818
:105060005B68574A934200F0C280554A934200F26F
:10507000E880504A934200F0BA804E4A934200F2D0
:10508000E0804E4A934200F0B2804C4A934200F2D4
:10509000D880474A934200F0AA80454A934200F2E2
:1050A000D080454A934200F0A280434A934200F2E6
:1050B000C880122B2CD8122B00F2C38001A252F808
:1050C00023F000BFEF510008195100086B51000890
:1050D0003D52000843520008435200084352000862
:1050E000435200084352000843520008435200084C
:1050F000435200084352000843520008435200083C
:10510000435200084352000841510008C5510008AD
:10511000264A93426BD094E03B68DB68022B0BD0AD
:105120003B68DB68012B07D03B68DB68032B03D0AF
:10513000D5211D48FDF76DF83B68DB683B6281E0D7
:105140003B68DB68022B0BD03B68DB68012B07D088
:105150003B68DB68032B03D0DC211348FDF759F8CB
:105160003B68DB6804333B626CE03B68DB68022B26
:105170000BD03B68DB68012B07D03B68DB68032B57
:1051800003D0E3210848FDF744F83B68DB680833A7
:105190003B6257E000080140000C01400010014054
:1051A0000014014000180140DCB800080000111094
:1051B0000000211000003110000012100000221029
:1051C000000032103B68DB68022B0BD03B68DB68C9
:1051D000012B07D03B68DB68032B03D0EA21804812
:1051E000FDF717F83B68DB680C333B622AE03B684D
:1051F0009B68002B0BD03B689B68012B07D03B685A
:105200009B68022B03D0F7217548FDF702F83B6835
:105210009B68002B02D104233B6213E03B689B6830
:10522000012B05D108233B627B68FA691A6109E00A
:1052300008233B627B68FA695A6103E000233B6202
:1052400000E000BFBB69FF2B01D87B6801E07B68F1
:1052500004337B61BB69FF2B02D87B6A9B0002E0B1
:105260007B6A083B9B003B617B691A680F213B69A5
:1052700001FA03F3DB431A40396A3B6901FA03F38D
:105280001A437B691A603B685B6803F08053002B0C
:1052900000F09680534B9B69524A43F0010393619F
:1052A000504B9B6903F00103BB60BB684E4A7B6AAD
:1052B0009B08023352F82330FB607B6A03F0030340
:1052C0009B000F2202FA03F3DB43FA681340FB60F2
:1052D0007B68464A934213D07B68454A93420DD07F
:1052E0007B68444A934207D07B68434A934201D18A
:1052F000032306E0042304E0022302E0012300E08C
:1053000000237A6A02F0030292009340FA68134382
:10531000FB6035497B6A9B080233FA6841F8232019
:105320003B685B6803F48013002B06D0334B9A680C
:105330003249BB6913438B6006E0304B9A68BB6906
:10534000DB432E4913408B603B685B6803F400131A
:10535000002B06D0294BDA682849BB691343CB6080
:1053600006E0264BDA68BB69DB4324491340CB6077
:105370003B685B6803F40033002B06D01F4B5A6870
:105380001E49BB6913434B6006E01C4B5A68BB695E
:10539000DB431A4913404B603B685B6803F480337E
:1053A000002B06D0154B1A681449BB6913430B60D8
:1053B00006E0124B1A68BB69DB43104913400B60CF
:1053C0007B6A01337B623B681A687B6A22FA03F3CB
:1053D000002B7FF41DAE00BF00BF2837BD4680BD47
:1053E000DCB8000800100240000001400008014045
:1053F000000C014000100140001401400004014075
:1054000080B582B000AF78600B467B8013467B701E
:105410007B88002B04D14FF4EA710E48FCF7F9FEAB
:105420007B78002B07D07B78012B04D040F2D5117C
:105430000848FCF7EEFE7B78002B03D07A887B6867
:105440001A6103E07B881A047B681A6100BF083781
:10545000BD4680BDDCB8000880B586B000AF78607E
:105460007B68002B01D101235AE37B681B68002B6A
:105470001CD07B681B6803F00103002B16D17B68EE
:105480001B6803F00203002B10D17B681B6803F03C
:105490000803002B0AD17B681B6803F00403002B70
:1054A00004D140F265118F48FCF7B3FE7B681B689E
:1054B00003F00103002B00F09A807B685B68002BEF
:1054C0000ED07B685B68B3F5803F09D07B685B6872
:1054D000B3F5A02F04D040F26B118248FCF799FE7F
:1054E000814B5B6803F00C03042B0CD07E4B5B6894
:1054F00003F00C03082B12D17B4B5B6803F4803361
:10550000B3F5803F0BD1784B1B6803F40033002BBD
:105510006CD07B685B68002B68D1012300E37B685B
:105520005B68B3F5803F06D16F4B1B686E4A43F44E
:10553000803313602EE07B685B68002B0CD16A4BD4
:105540001B68694A23F480331360674B1B68664A03
:1055500023F4802313601DE07B685B68B3F5A02F04
:105560000CD1614B1B68604A43F4802313605E4B8F
:105570001B685D4A43F4803313600BE05A4B1B6891
:10558000594A23F480331360574B1B68564A23F45F
:10559000802313607B685B68002B13D0FFF71CF837
:1055A000386108E0FFF718F802463B69D31A642B0C
:1055B00001D90323B4E24C4B1B6803F40033002BE6
:1055C000F0D014E0FFF708F8386108E0FFF704F8BE
:1055D00002463B69D31A642B01D90323A0E2424B54
:1055E0001B6803F40033002BF0D100E000BF7B68A0
:1055F0001B6803F00203002B00F080807B681B69AE
:10560000002B08D07B681B69012B04D040F29F114E
:105610003448FCF7FEFD7B685B691F2B04D94FF40F
:10562000D0713048FCF7F5FD2F4B5B6803F00C039D
:10563000002B0BD02C4B5B6803F00C03082B1CD108
:10564000294B5B6803F48033002B16D1264B1B6873
:1056500003F00203002B05D07B681B69012B01D0EE
:1056600001235DE2204B1B6823F0F8027B685B6935
:10567000DB001D4913430B6040E07B681B69002B76
:1056800020D01A4B01221A60FEF7A6FF386108E00D
:10569000FEF7A2FF02463B69D31A022B01D903236E
:1056A0003EE2114B1B6803F00203002BF0D00E4BBF
:1056B0001B6823F0F8027B685B69DB000A4913432F
:1056C0000B601BE0094B00221A60FEF785FF386172
:1056D0000EE0FEF781FF02463B69D31A022B07D981
:1056E00003231DE218B900080010024000004242E6
:1056F0007D4B1B6803F00203002BEAD17B681B681B
:1057000003F00803002B40D07B689B69002B08D076
:105710007B689B69012B04D04FF4F0717348FCF750
:1057200078FD7B689B69002B19D0714B01221A60B0
:10573000FEF752FF386108E0FEF74EFF02463B6974
:10574000D31A022B01D90323EAE1674B5B6A03F00A
:105750000203002BF0D0012000F002FC15E0644BA6
:1057600000221A60FEF738FF386108E0FEF734FFC8
:1057700002463B69D31A022B01D90323D0E15A4BCD
:105780005B6A03F00203002BF0D17B681B6803F017
:105790000403002B00F0BF800023FB757B68DB68EF
:1057A000002B0CD07B68DB68012B08D07B68DB68A2
:1057B000052B04D040F20F214C48FCF72AFD4A4B40
:1057C000DB6903F08053002B0DD1474BDB69464A60
:1057D00043F08053D361444BDB6903F08053BB60DB
:1057E000BB680123FB75434B1B6803F48073002BDC
:1057F00018D1404B1B683F4A43F480731360FEF797
:10580000EBFE386108E0FEF7E7FE02463B69D31A7B
:10581000642B01D9032383E1364B1B6803F48073A7
:10582000002BF0D07B68DB68012B06D12E4B1B6A66
:105830002D4A43F0010313622DE07B68DB68002BE7
:105840000CD1294B1B6A284A23F001031362264B13
:105850001B6A254A23F0040313621CE07B68DB68A3
:10586000052B0CD1204B1B6A1F4A43F00403136223
:105870001D4B1B6A1C4A43F0010313620BE01A4BD9
:105880001B6A194A23F001031362174B1B6A164A5D
:1058900023F0040313627B68DB68002B15D0FEF74E
:1058A0009BFE38610AE0FEF797FE02463B69D31A79
:1058B00041F28832934201D9032331E10A4B1B6A3A
:1058C00003F00203002BEED01CE0FEF785FE3861EA
:1058D00012E0FEF781FE02463B69D31A41F288329C
:1058E000934209D903231BE10010024018B90008B4
:1058F00080044242007000408B4B1B6A03F002039D
:10590000002BE6D1FB7D012B05D1874BDB69864A55
:1059100023F08053D3617B68DB69002B0CD07B685C
:10592000DB69012B08D07B68DB69022B04D040F2D5
:10593000AD217E48FCF76DFC7B68DB69002B00F035
:10594000EE80794B5B6803F00C03082B00F0CE80EF
:105950007B68DB69022B40F0B2807B681B6A002BFE
:1059600009D07B681B6AB3F5803F04D040F2B621B2
:105970006E48FCF74EFC7B685B6A002B4AD07B6864
:105980005B6AB3F5802F45D07B685B6AB3F5002F67
:1059900040D07B685B6AB3F5402F3BD07B685B6A85
:1059A000B3F5801F36D07B685B6AB3F5A01F31D09A
:1059B0007B685B6AB3F5C01F2CD07B685B6AB3F56C
:1059C000E01F27D07B685B6AB3F5001F22D07B689D
:1059D0005B6AB3F5101F1DD07B685B6AB3F5201FAF
:1059E00018D07B685B6AB3F5301F13D07B685B6AA5
:1059F000B3F5401F0ED07B685B6AB3F5501F09D02A
:105A00007B685B6AB3F5601F04D040F2B72147485A
:105A1000FCF7FFFB464B00221A60FEF7DDFD386104
:105A200008E0FEF7D9FD02463B69D31A022B01D9E3
:105A3000032375E03C4B1B6803F00073002BF0D18F
:105A40007B681B6AB3F5803F16D17B689B68002B8F
:105A500009D07B689B68B3F5003F04D040F2CD21AC
:105A60003248FCF7D6FB304B5B6823F400327B688E
:105A70009B682D4913434B602B4B5B6823F47412D6
:105A80007B68196A7B685B6A0B43274913434B6049
:105A9000274B01221A60FEF79FFD386108E0FEF7F0
:105AA0009BFD02463B69D31A022B01D9032337E041
:105AB0001D4B1B6803F00073002BF0D02FE01C4B34
:105AC00000221A60FEF788FD386108E0FEF784FDC9
:105AD00002463B69D31A022B01D9032320E0124B63
