:020000040800F2
:1000000000500020ED490008BD240008C524000868
:10001000CD240008D5240008DD24000800000000DD
:10002000000000000000000000000000E5240008BF
:10003000F124000800000000FD2400080925000844
:10004000354A0008354A0008354A0008354A000894
:10005000354A0008354A0008354A0008354A000884
:10006000354A0008354A0008354A0008354A000874
:1000700015250008354A0008354A0008354A0008A9
:1000800029250008354A0008354A0008354A000885
:10009000354A0008354A0008354A0008354A000844
:1000A000354A0008354A0008354A0008354A000834
:1000B000354A0008354A0008354A0008354A000824
:1000C000354A0008354A0008354A0008354A000814
:1000D000354A0008354A00083D250008512500082A
:1000E000354A0008354A0008354A0008000000007B
:1000F0000000000000000000000000000000000000
:0C01000000000000000000005FF808F1A3
:1001100010B5054C237833B9044B13B10448AFF341
:1001200000800123237010BDD801002000000000D2
:1001300094B9000808B5034B1BB103490348AFF35A
:10014000008008BD00000000DC01002094B9000818
:10015000034613F8012B002AFBD1181A0138704707
:1001600081F0004102E000BF83F0004330B54FEA68
:1001700041044FEA430594EA050F08BF90EA020FD5
:100180001FBF54EA000C55EA020C7FEA645C7FEA68
:10019000655C00F0E2804FEA5454D4EB5555B8BF8B
:1001A0006D420CDD2C4480EA020281EA030382EAFC
:1001B000000083EA010180EA020281EA0303362D8E
:1001C00088BF30BD11F0004F4FEA01314FF4801C61
:1001D0004CEA113102D0404261EB410113F0004F73
:1001E0004FEA03334CEA133302D0524263EB43032A
:1001F00094EA050F00F0A780A4F10104D5F1200EC8
:100200000DDB02FA0EFC22FA05F2801841F1000122
:1002100003FA0EF2801843FA05F359410EE0A5F1F6
:1002200020050EF1200E012A03FA0EFC28BF4CF027
:10023000020C43FA05F3C01851EBE37101F00045DD
:1002400007D54FF0000EDCF1000C7EEB00006EEBEA
:100250000101B1F5801F1BD3B1F5001F0CD3490874
:100260005FEA30004FEA3C0C04F101044FEA4452CB
:1002700012F5800F80F09A80BCF1004F08BF5FEA52
:10028000500C50F1000041EB045141EA050130BD32
:100290005FEA4C0C404141EB0101013C28BFB1F544
:1002A000801FE9D291F0000F04BF01460020B1FA8F
:1002B00081F308BF2033A3F10B03B3F120020CDA62
:1002C0000C3208DD02F1140CC2F10C0201FA0CF040
:1002D00021FA02F10CE002F11402D8BFC2F1200CA5
:1002E00001FA02F120FA0CFCDCBF41EA0C0190405B
:1002F000E41AA2BF01EB0451294330BD6FEA0404A4
:100300001F3C1CDA0C340EDC04F11404C4F120028E
:1003100020FA04F001FA02F340EA030021FA04F3A0
:1003200045EA030130BDC4F10C04C4F1200220FAF7
:1003300002F001FA04F340EA0300294630BD21FA35
:1003400004F0294630BD94F0000F83F4801306BFFB
:1003500081F480110134013D4EE77FEA645C18BFEF
:100360007FEA655C29D094EA050F08BF90EA020F86
:1003700005D054EA000C04BF1946104630BD91EA7E
:10038000030F1EBF0021002030BD5FEA545C05D181
:100390004000494128BF41F0004130BD14F58004C0
:1003A0003CBF01F5801130BD01F0004545F0FE4134
:1003B00041F470014FF0000030BD7FEA645C1ABF69
:1003C000194610467FEA655C1CBF0B46024650EAA0
:1003D000013406BF52EA033591EA030F41F40021CC
:1003E00030BD00BF90F0000F04BF0021704730B552
:1003F0004FF4806404F132044FF000054FF0000127
:1004000050E700BF90F0000F04BF0021704730B5E7
:100410004FF4806404F1320410F0004548BF4042BC
:100420004FF000013EE700BF42004FEAE2014FEA11
:1004300031014FEA02701FBF12F07F4393F07F4FEC
:1004400081F06051704732F07F4208BF704793F0EF
:100450007F4F04BF41F40021704730B54FF4607402
:1004600001F0004521F000411CE700BF50EA010205
:1004700008BF704730B54FF000050AE050EA0102AE
:1004800008BF704730B511F0004502D5404261EB1E
:1004900041014FF4806404F132045FEA915C3FF45F
:1004A000D8AE4FF003025FEADC0C18BF03325FEAFC
:1004B000DC0C18BF033202EBDC02C2F1200300FAAD
:1004C00003FC20FA02F001FA03FE40EA0E0021FAD2
:1004D00002F11444BDE600BF70B54FF0FF0C4CF4C0
:1004E000E06C1CEA11541DBF1CEA135594EA0C0F72
:1004F00095EA0C0F00F0DEF82C4481EA030621EAAD
:100500004C5123EA4C5350EA013518BF52EA0335E7
:1005100041F4801143F4801338D0A0FB02CE4FF099
:100520000005E1FB02E506F00042E0FB03E54FF0C9
:100530000006E1FB03569CF0000F18BF4EF0010EC1
:10054000A4F1FF04B6F5007F64F5407404D25FEABD
:100550004E0E6D4146EB060642EAC62141EA555170
:100560004FEAC52040EA5E504FEACE2EB4F1FD0CB2
:1005700088BFBCF5E06F1ED8BEF1004F08BF5FEA30
:10058000500E50F1000041EB045170BD06F00046E2
:1005900046EA010140EA020081EA0301B4EB5C048F
:1005A000C2BFD4EB0C0541EA045170BD41F4801187
:1005B0004FF0000E013C00F3AB8014F1360FDEBFAC
:1005C000002001F0004170BDC4F10004203C35DA88
:1005D0000C341BDC04F11404C4F1200500FA05F30B
:1005E00020FA04F001FA05F240EA020001F00042AC
:1005F00021F0004110EBD37021FA04F642EB060122
:100600005EEA430E08BF20EAD37070BDC4F10C044B
:10061000C4F1200500FA04F320FA05F001FA04F20F
:1006200040EA020001F0004110EBD37041F10001FB
:100630005EEA430E08BF20EAD37070BDC4F1200506
:1006400000FA05F24EEA020E20FA04F301FA05F26E
:1006500043EA020321FA04F001F0004121FA04F216
:1006600020EA020000EBD3705EEA430E08BF20EAE6
:10067000D37070BD94F0000F0FD101F00046400020
:1006800041EB010111F4801F08BF013CF7D041EAA2
:10069000060195F0000F18BF704703F000465200A6
:1006A00043EB030313F4801F08BF013DF7D043EA77
:1006B0000603704794EA0C0F0CEA135518BF95EA2D
:1006C0000C0F0CD050EA410618BF52EA4306D1D1B4
:1006D00081EA030101F000414FF0000070BD50EAD3
:1006E000410606BF1046194652EA430619D094EA5D
:1006F0000C0F02D150EA013613D195EA0C0F05D147
:1007000052EA03361CBF104619460AD181EA03019A
:1007100001F0004141F0FE4141F470014FF0000052
:1007200070BD41F0FE4141F4780170BD70B54FF0ED
:10073000FF0C4CF4E06C1CEA11541DBF1CEA13556D
:1007400094EA0C0F95EA0C0F00F0A7F8A4EB05044F
:1007500081EA030E52EA03354FEA013100F0888046
:100760004FEA03334FF0805545EA131343EA12630F
:100770004FEA022245EA111545EA10654FEA0026C4
:100780000EF000419D4208BF964244F1FD0404F57D
:10079000407402D25B084FEA3202B61A65EB0305D9
:1007A0005B084FEA32024FF480104FF4002CB6EB96
:1007B000020E75EB030E22BFB61A754640EA0C0016
:1007C0005B084FEA3202B6EB020E75EB030E22BF56
:1007D000B61A754640EA5C005B084FEA3202B6EB97
:1007E000020E75EB030E22BFB61A754640EA9C0056
:1007F0005B084FEA3202B6EB020E75EB030E22BF26
:10080000B61A754640EADC0055EA060E18D04FEAE3
:10081000051545EA16754FEA06164FEAC30343EA83
:1008200052734FEAC2025FEA1C1CC0D111F4801F50
:100830000BD141EA00014FF000004FF0004CB6E749
:1008400011F4801F04BF01430020B4F1FD0C88BFE8
:10085000BCF5E06F3FF6AFAEB5EB030C04BFB6EBF3
:10086000020C5FEA500C50F1000041EB045170BDE6
:100870000EF0004E4EEA113114EB5C04C2BFD4EB13
:100880000C0541EA045170BD41F480114FF0000E97
:10089000013C90E645EA060E8DE60CEA135594EA13
:1008A0000C0F08BF95EA0C0F3FF43BAF94EA0C0F16
:1008B0000AD150EA01347FF434AF95EA0C0F7FF48B
:1008C00025AF104619462CE795EA0C0F06D152EADF
:1008D00003353FF4FDAE1046194622E750EA4106C3
:1008E00018BF52EA43067FF4C5AE50EA41047FF4D4
:1008F0000DAF52EA43057FF4EBAE12E74FF0FF3C39
:1009000006E000BF4FF0010C02E000BF4FF0010C09
:100910004DF804CD4FEA410C7FEA6C5C4FEA430C82
:1009200018BF7FEA6C5C1BD001B050EA410C0CBFD1
:1009300052EA430C91EA030F02BF90EA020F002033
:10094000704710F1000F91EA030F58BF994208BF9A
:1009500090422CBFD8176FEAE37040F00100704757
:100960004FEA410C7FEA6C5C02D150EA013C07D1AE
:100970004FEA430C7FEA6C5CD6D152EA033CD3D0F9
:100980005DF8040B704700BF8446104662468C46F3
:100990001946634600E000BF01B5FFF7B7FF002826
:1009A00048BF10F1000F01BD4DF808EDFFF7F4FF4F
:1009B0000CBF012000205DF808FB00BF4DF808EDDA
:1009C000FFF7EAFF34BF012000205DF808FB00BFFD
:1009D0004DF808EDFFF7E0FF94BF012000205DF81F
:1009E00008FB00BF4DF808EDFFF7CEFF94BF0120D4
:1009F00000205DF808FB00BF4DF808EDFFF7C4FFCD
:100A000034BF012000205DF808FB00BF4A0011D26E
:100A100012F5001211D20DD56FF47873B3EB625258
:100A20000ED44FEAC12343F0004343EA505323FA64
:100A300002F070474FF00000704750EA013002D1D9
:100A40004FF0FF3070474FF0000070474FEA41020F
:100A5000B2F1E04324BFB3F5001CDCF1FE5C0DD91C
:100A600001F0004C4FEAC0024CEA5070B2F1004F66
:100A700040EB830008BF20F00100704711F0804F69
:100A800021D113F13872BCBF01F00040704741F42E
:100A900080114FEA5252C2F11802C2F1200C10FA32
:100AA0000CF320FA02F018BF40F001004FEAC12316
:100AB0004FEAD32303FA0CFC40EA0C0023FA02F3BA
:100AC0004FEA4303CCE77FEA625307D150EA013390
:100AD0001EBF4FF0FE4040F44000704701F0004060
:100AE00040F0FE4040F40000704700BF80F000403E
:100AF00002E000BF81F0004142001FBF5FEA4103F6
:100B000092EA030F7FEA226C7FEA236C6AD04FEAF5
:100B10001262D2EB1363C1BFD2184140484041403A
:100B2000B8BF5B42192B88BF704710F0004F40F4EC
:100B3000000020F07F4018BF404211F0004F41F408
:100B4000000121F07F4118BF494292EA030F3FD0D4
:100B5000A2F1010241FA03FC10EB0C00C3F12003E7
:100B600001FA03F100F0004302D5494260EB400076
:100B7000B0F5000F13D3B0F1807F06D340084FEAE1
:100B8000310102F10102FE2A51D2B1F1004F40EBD6
:100B9000C25008BF20F0010040EA0300704749003E
:100BA00040EB0000013A28BFB0F5000FEDD2B0FADB
:100BB00080FCACF1080CB2EB0C0200FA0CF0AABFFE
:100BC00000EBC25052421843BCBFD040184370479C
:100BD00092F0000F81F4000106BF80F400000132A2
:100BE000013BB5E74FEA41037FEA226C18BF7FEA79
:100BF000236C21D092EA030F04D092F0000F08BFBB
:100C00000846704790EA010F1CBF0020704712F0A1
:100C10007F4F04D1400028BF40F00040704712F1E0
:100C200000723CBF00F50000704700F0004343F045
:100C3000FE4040F4000070477FEA226216BF08467B
:100C40007FEA23630146420206BF5FEA412390EA3E
:100C5000010F40F4800070474FF0000304E000BF34
:100C600010F0004348BF40425FEA000C08BF7047E5
:100C700043F0964301464FF000001CE050EA0102A9
:100C800008BF70474FF000030AE000BF50EA0102BE
:100C900008BF704711F0004302D5404261EB4101AB
:100CA0005FEA010C02BF84460146002043F0B643D0
:100CB00008BFA3F18053A3F50003BCFA8CF2083AF5
:100CC000A3EBC25310DB01FA02FC634400FA02FCFE
:100CD000C2F12002BCF1004F20FA02F243EB020005
:100CE00008BF20F00100704702F1200201FA02FC67
:100CF000C2F1200250EA4C0021FA02F243EB02005A
:100D000008BF20EADC7070474FF0FF0C1CEAD0529D
:100D10001EBF1CEAD15392EA0C0F93EA0C0F6FD05E
:100D20001A4480EA010C400218BF5FEA41211ED03C
:100D30004FF0006343EA501043EA5111A0FB013128
:100D40000CF00040B1F5000F3EBF490041EAD371FD
:100D50005B0040EA010062F17F02FD2A1DD8B3F179
:100D6000004F40EBC25008BF20F00100704790F0E8
:100D7000000F0CF0004C08BF49024CEA502040EA3A
:100D800051207F3AC2BFD2F1FF0340EAC250704700
:100D900040F400004FF00003013A5DDC12F1190F3E
:100DA000DCBF00F000407047C2F10002410021FAB0
:100DB00002F1C2F1200200FA02FC5FEA310040F1C8
:100DC000000053EA4C0308BF20EADC70704792F041
:100DD000000F00F0004C02BF400010F4000F013A79
:100DE000F9D040EA0C0093F0000F01F0004C02BF74
:100DF000490011F4000F013BF9D041EA0C018FE7E3
:100E00000CEAD15392EA0C0F18BF93EA0C0F0AD0E8
:100E100030F0004C18BF31F0004CD8D180EA01000E
:100E200000F00040704790F0000F17BF90F0004FA7
:100E3000084691F0000F91F0004F14D092EA0C0F89
:100E400001D142020FD193EA0C0F03D14B0218BF1C
:100E5000084608D180EA010000F0004040F0FE4062
:100E600040F40000704740F0FE4040F440007047FE
:100E70004FF0FF0C1CEAD0521EBF1CEAD15392EA7D
:100E80000C0F93EA0C0F69D0A2EB030280EA010C6D
:100E900049024FEA402037D04FF0805343EA111106
:100EA00043EA10130CF000408B4238BF5B0042F164
:100EB0007D024FF4000C8B4224BF5B1A40EA0C0009
:100EC000B3EB510F24BFA3EB510340EA5C00B3EB3B
:100ED000910F24BFA3EB910340EA9C00B3EBD10F29
:100EE00024BFA3EBD10340EADC001B0118BF5FEA7B
:100EF0001C1CE0D1FD2A3FF650AF8B4240EBC250A4
:100F000008BF20F0010070470CF0004C4CEA502064
:100F10007F32C2BFD2F1FF0340EAC250704740F4B3
:100F200000004FF00003013A37E792F0000F00F0A5
:100F3000004C02BF400010F4000F013AF9D040EA23
:100F40000C0093F0000F01F0004C02BF490011F4B7
:100F5000000F013BF9D041EA0C0195E70CEAD153AF
:100F600092EA0C0F08D142027FF47DAF93EA0C0F96
:100F70007FF470AF084676E793EA0C0F04D14B027A
:100F80003FF44CAF08466EE730F0004C18BF31F02C
:100F9000004CCAD130F000427FF45CAF31F0004326
:100FA0007FF43CAF5FE700BF4FF0FF3C06E000BFBF
:100FB0004FF0010C02E000BF4FF0010C4DF804CDE2
:100FC0004FEA40024FEA41037FEA226C18BF7FEAF2
:100FD000236C11D001B052EA530C18BF90EA010FF4
:100FE00058BFB2EB030088BFC81738BF6FEAE17083
:100FF00018BF40F0010070477FEA226C02D15FEA1F
:10100000402C05D17FEA236CE4D15FEA412CE1D08A
:101010005DF8040B704700BF844608466146FFE751
:101020000FB5FFF7C9FF002848BF10F1000F0FBD33
:101030004DF808EDFFF7F4FF0CBF012000205DF82C
:1010400008FB00BF4DF808EDFFF7EAFF34BF0120B1
:1010500000205DF808FB00BF4DF808EDFFF7E0FF4A
:1010600094BF012000205DF808FB00BF4DF808ED9B
:10107000FFF7D2FF94BF012000205DF808FB00BFFE
:101080004DF808EDFFF7C8FF34BF012000205DF8E0
:1010900008FB00BF4FEA40024FEA41037FEA226C9F
:1010A00002D15FEA402C08D17FEA236C02D15FEACB
:1010B000412C02D14FF0000070474FF00100704703
:1010C0004FEA4002B2F1FE4F0FD34FF09E03B3EB55
:1010D00012620DD94FEA002343F0004310F0004F95
:1010E00023FA02F018BF404270474FF000007047EB
:1010F00012F1610F01D1420205D110F0004008BF8A
:101100006FF0004070474FF0000070477BB972B934
:101110000029BEBF00204FF0004106E008BF0028B4
:101120001CBF6FF000414FF0FF3000F0EFB9ADF1A0
:10113000080C6DE904CE002909DB002B1ADB00F056
:101140006BF8DDF804E0DDE9022304B070474042AB
:1011500061EB4101002B1BDB00F05EF8DDF804E0E1
:10116000DDE9022304B0404261EB4101524263EBEE
:1011700043037047524263EB430300F04DF8DDF840
:1011800004E0DDE9022304B0404261EB4101704715
:10119000524263EB430300F03FF8DDF804E0DDE981
:1011A000022304B0524263EB4303704738B5002278
:1011B000002304460D46FFF701FC28B920462946C6
:1011C000BDE8384000F00AB8204605F1004100F0C3
:1011D00005F8404261EB410138BD00BFD0B50022A7
:1011E0000B4B06460F46FFF777F9FFF70FFC044657
:1011F000FFF7F8F80022074BFFF76EF902460B469F
:1012000030463946FEF7B0FFFFF700FC2146D0BD5F
:101210000000F03D0000F0412DE9F047089D0F4629
:1012200004468E46002B48D18A42164661D9B2FA4E
:1012300082F24AB1C2F1200301FA02FE20FA03F35E
:10124000964043EA0E0E94404FEA164CBEFBFCF16A
:10125000B7B20CFB11EE01FB07F0230C43EA0E437F
:10126000984209D9F31801F1FF3E80F0ED809842D1
:1012700040F2EA80023933441B1AB3FBFCF00CFB4A
:10128000103300FB07F7A4B244EA0344A74209D98C
:10129000341900F1FF3380F0D980A74240F2D680A4
:1012A0003444023840EA01400021E41B1DB1002310
:1012B000D440C5E90043BDE8F0878B4206D90DB1A3
:1012C000C5E9000100210846BDE8F087B3FA83F1C3
:1012D000002947D1BB4202D3824200F20481841A22
:1012E00067EB030201209646002DE4D0C5E9004ECD
:1012F000E1E7002A00F09080B2FA82F2002A40F082
:10130000A780881B0121370C1FFA86FEB0FBF7FC73
:1013100007FB1C00230C43EA00430EFB0CF0984231
:1013200007D9F3180CF1FF3802D2984200F2E0809E
:10133000C4461B1AB3FBF7F007FB10330EFB00FE8D
:10134000A4B244EA0344A64507D9341900F1FF3397
:1013500002D2A64500F2C9801846A4EB0E0440EA6A
:101360000C40A3E7C1F120068B4022FA06FC4CEAB0
:10137000030C27FA06FA4FEA1C49BAFBF9F88F402A
:1013800020FA06F309FB18AA1FFA8CFE3B4300FA69
:1013900001F708FB0EF01C0C44EA0A44A04202FAD2
:1013A00001F20BD91CEB040408F1FF3A80F099809C
:1013B000A04240F29680A8F102086444241A98B230
:1013C000B4FBF9F309FB134403FB0EFE40EA0444AB
:1013D000A64508D91CEB040403F1FF307FD2A645D3
:1013E0007DD9023B644443EA0840A4EB0E04A0FB11
:1013F000028E74454346F14661D35ED055B1FA1A68
:1014000064EB090404FA06F622FA01F31E43CC4009
:10141000C5E9006400214EE743084FEA510C43EA56
:10142000C1710A0C42EA0C428BB2C407B2FBF6F15E
:1014300043EA0243BCFBF6FCB646304637461F2261
:10144000181A41EA0C4161E7714615E7184629E789
:10145000C2F1200321FA03F0964024FA03F39740E7
:101460003B43370CB0FBF7F807FB18001FFA86FE6A
:10147000190C41EA004108FB0EF0884204FA02F41C
:101480003AD9711808F1FF3C01D288421ED8091AD6
:10149000B1FBF7F808FB0EF007FB18119BB243EA0B
:1014A000014383422FD2F31808F1FF31C8D283429F
:1014B000C6D2A8F102013344C2E747459ED2B8EB39
:1014C00002036EEB0C0E0138F14697E7301A014427
:1014D000A8F1020CB1FBF7F808FB0EF0DCE70346BD
:1014E00081E7D0466AE70846FEE63444023834E72E
:1014F000ACF1020C33441CE7091AC446B1FBF7F8FF
:1015000008FB0EF0C8E741469AE700BF704700BFEE
:1015100080B582B000AF104B5B690F4A43F0010306
:1015200053610D4B5B6903F001037B607B68002214
:1015300000210C2003F0CEFB0C2003F0F7FB00226F
:101540000021102003F0C6FB102003F0EFFB00BFCA
:101550000837BD4680BD00BF0010024080B588B08E
:1015600000AF07F1100300221A605A609A60DA6037
:10157000244B9B69234A43F010039361214B9B69E1
:1015800003F01003FB60FB681E4B9B691D4A43F090
:10159000200393611B4B9B6903F02003BB60BB6876
:1015A000184B9B69174A43F004039361154B9B69E1
:1015B00003F004037B607B68124B9B69114A43F084
:1015C000080393610F4B9B6903F008033B603B6882
:1015D00000224FF400510C4804F09AF94FF40053E4
:1015E0003B6101237B610023BB610223FB6107F1A7
:1015F00010031946044803F01DFF00BF2037BD4605
:1016000080BD00BF001002400010014080B584B0D2
:1016100000AFF860B9607A607B689AB26423B968F9
:10162000064804F0EFFF0346002B01D07B6800E082
:101630007B6818461037BD4680BD00BF6805002096
:1016400080B584B000AFF860B9607A603B600F4B42
:101650001B78002B16D10E4ABB6813600D4A7B68BD
:1016600013600D4A3B681360084B01221A70F8683A
:10167000FEF76EFD03469BB21A46F968074805F06F
:1016800071F800E000BF1037BD4680BD5405002052
:10169000580500205C05002060050020F8050020AA
:1016A00090B583B000AF78607B681B680D4A9342A9
:1016B00013D10D4B1B6801330B4A13600B4B1C7885
:1016C00003F012FA03461A462146094803F0C2F80D
:1016D00001220649074805F020F800BF0C37BD4637
:1016E00090BD00BF00440040F8010020F40100203C
:1016F000FC010020B005002090B583B000AF7860F9
:101700007B681B68294A93424BD1294B1B78013BCC
:10171000032B45D801A252F823F000BF2D17000873
:10172000511700087517000899170008204B02226E
:101730001A70204B1C681F4B1B681846FEF708FDEB
:1017400003469BB21A4621461B4805F00BF828E0D9
:10175000174B03221A70194B1C68184B1B6818464C
:10176000FEF7F6FC03469BB21A462146124804F0E7
:10177000F9FF16E00E4B04221A70114B1C68104B37
:101780001B681846FEF7E4FC03469BB21A46214646
:10179000094804F0E7FF04E0054B00221A7000E05E
:1017A00000BF00BF0C37BD4690BD00BF00480040E1
:1017B0005405002058050020F80500205C05002095
:1017C0006005002080B586B000AF78607B681B683C
:1017D0001B4A934225D100237B617B681B681B68F1
:1017E0007B617B681B685B687B617B6900233B6175
:1017F0007B681B681B683B617B681B685B683B619F
:101800003B690023FB607B681B681B68FB607B688F
:101810001B685B68FB60FB6801220A490A4804F008
:101820007CFF7B681B68094A934205D1084805F094
:1018300009F8084B00221A7000BF1837BD4680BD5A
:1018400000440040F4010020B005002000480040A2
:10185000F8050020540500202DE9F041C8B014AF70
:1018600003F0EAF800F0A2FDFFF778FEFFF750FE64
:1018700000F024FF00F04CFF00F074FF894802F0F4
:10188000E3FE04228849894801F0BAF8884987486C
:1018900001F090F9874802F055FC012286498748FB
:1018A00004F03BFF03F020F90346854A13608548A6
:1018B00006F0CEFD844806F0CBFD844806F0C8FD56
:1018C000834806F0C5FD0421824806F059FD002337
:1018D000C7F8CC30AAE07449D7F8CC2013465B0097
:1018E00013449B000B441B687B491846FFF70CFA16
:1018F00003464FF07C511846FFF7FEF803461846A2
:10190000FFF7DEFB0346C7F88C306749D7F8CC20D9
:1019100013465B0013449B000B4404331B686E4961
:101920001846FFF7F1F903464FF07C511846FFF7D0
:10193000E3F803461846FFF7C3FB0346C7F88830B1
:101940005949D7F8CC2013465B0013449B000B4445
:1019500008331B6860491846FFF7D6F903464FF075
:101960007C511846FFF7C8F803461846FFF7A8FB56
:101970000346C7F88430D7F8CC3003F1010CD7F810
:101980008C30564A82FB03125211DB17A2EB030E76
:10199000D7F88C30002BB8BF5B42504A82FB031251
:1019A0005111DA17881A642200FB02F2981AD7F84C
:1019B00088304A4A82FB03125211DB17D41AD7F837
:1019C000883083EAE372A2EBE372444B83FB021399
:1019D0005911D317CB1A642101FB03F3D31AD7F89B
:1019E00084203E4981FB02514911D2178D1AD7F844
:1019F000842082EAE271A1EBE271384A82FB016243
:101A00005611CA17B21A642606FB02F28A1A03920A
:101A1000029501930094034672466146304806F0F1
:101A2000AFFCD7F8CC300133C7F8CC30D7F8CC3086
:101A3000032B7FF750AF4FF496632A4A2A492B486D
:101A400006F09EFC2A4806F003FD03F04DF8C7F8A7
:101A5000C800284B1B68D7F8C820D31A132B40F2B4
:101A60004E84244AD7F8C8301360D7F8C8100D4800
:101A700002F024FF0346022B40F3498307F174016F
:101A8000D7F8C8300422074802F058FFC7F8C4004E
:101A9000D7F8C430002B31D1174B1B680133164ADD
:101AA000136030E0FC01002054BF000880020020D9
:101AB000CDCCCC3F88030020F4010020B0050020ED
:101AC00050050020B0B90008DCB900080CBA0008C5
:101AD00040BA00086CBA00080000C8421F85EB51EC
:101AE0007CBA000888B6E746F8552413A4BA000863
:101AF000CCBA00083805002040050020A64B1B6822
:101B00000133A54A136007F17401D7F8C830A34A1E
:101B1000A34801F01BFDC7F8C00007F16C0107F1F5
:101B2000700207F15C03039307F16003029307F16E
:101B30006403019307F1680300930B46D7F8C810BC
:101B4000974801F091FE3B6F23F0004401231D46AE
:101B500094492046FFF79EFA0346002B08D191498D
:101B60002046FFF78DFA0346002B01D100231D46C6
:101B7000EBB283F00103DBB2002B00F0B182FB6E0D
:101B800023F0004401231D4686492046FFF782FAD0
:101B90000346002B08D183492046FFF771FA03461C
:101BA000002B01D100231D46EBB283F00103DBB211
:101BB000002B00F09582BB6E23F0004401231D46EC
:101BC00078492046FFF766FA0346002B08D175498D
:101BD0002046FFF755FA0346002B01D100231D468E
:101BE000EBB283F00103DBB2002B00F079823B6F94
:101BF0006D4A1360FB6E6D4A1360BB6E6C4A1360D6
:101C00007B6E6C4A13603B6E6B4A13606B4B012218
:101C10001A60D7F8C030002B09DD694B1B6801330F
:101C2000674A1360674B1B680133664A1360386F5D
:101C3000F96EBA6E07F15003049307F1540303934E
:101C400007F1580302934FF4966301935E4B0093A0
:101C50005E4B02F0C3F90023FB640023BB644FF02A
:101C600000037B6407F1480107F14C0207F14403CC
:101C700000930B46D7F8C810494801F0A3FED7F8E7
:101C8000C810474801F06EFEC7F8BC007B6C504995
:101C90001846FFF739F803464FF07C511846FEF717
:101CA0002BFF03461846FFF70BFA0346C7F8B83078
:101CB0003B6F47491846FFF727F803461C463B6F22
:101CC0004FF000011846FFF7D1F90346002B02D070
:101CD0004FF07C5301E04FF03F4321461846FEF79A
:101CE0000BFF03461846FFF7EBF90346C7F8B4307D
:101CF000FB6E37491846FFF707F803461C46FB6E94
:101D00004FF000011846FFF7B1F90346002B02D04F
:101D10004FF07C5301E04FF03F4321461846FEF759
:101D2000EBFE03461846FFF7CBF90346C7F8B03081
:101D3000BB6E27491846FEF7E7FF03461C46BB6EFD
:101D40004FF000011846FFF791F90346002B02D02F
:101D50004FF07C5301E04FF03F4321461846FEF719
:101D6000CBFE03461846FFF7ABF90346C7F8AC3085
:101D70007B6E17491846FEF7C7FF03461C467B6E6D
:101D80004FF000011846FFF771F90346002B21D0F0
:101D90004FF07C5320E000BF3C0500206002002093
:101DA00080020020FFFF7F7F180500201C05002017
:101DB0000000002020050020240500202805002028
:101DC000340500204405002088B6E746F855241362
:101DD0000000C8424FF03F4321461846FEF78CFEF4
:101DE00003461846FFF76CF90346C7F8A8303B6E68
:101DF000B5491846FEF788FF03461C463B6E4FF078
:101E000000011846FFF732F90346002B02D04FF0CD
:101E10007C5301E04FF03F4321461846FEF76CFE2D
:101E200003461846FFF74CF90346C7F8A430FB6D8C
:101E3000A5491846FEF768FF03461C46FB6D4FF0A8
:101E400000011846FFF712F90346002B02D04FF0AD
:101E50007C5301E04FF03F4321461846FEF74CFE0D
:101E600003461846FFF72CF90346C7F8A03002F0E6
:101E70003BFE0346954AA2FB03234FEA931ED7F885
:101E8000B430934A82FB03125211DB17A2EB030812
:101E9000D7F8B430002BB8BF5B428D4A82FB0312E7
:101EA0005111DA17A1EB020C642202FB0CF2A3EB36
:101EB000020CD7F8B030864A82FB03125211DB17AE
:101EC000D31A7B63D7F8B030002BB8BF5B42804A8F
:101ED00082FB03125111DA178A1A1146642201FBA0
:101EE00002F29A1A3A63D7F8AC30794A82FB0312AD
:101EF0005211DB17D11AF962D7F8AC30002BB8BFFA
:101F00005B42734A82FB03125111DA17881A64226A
:101F100000FB02F2981AB862D7F8A8306C4A82FB2C
:101F200003125211DB17D41A7C62D7F8A830002BA9
:101F3000B8BF5B42664A82FB03125111DA178D1A51
:101F4000642205FB02F29D1A3D62D7F8A430604A74
:101F500082FB03125211DB17D61AFE61D7F8A430A8
:101F6000002BB8BF5B425A4A82FB03125111DA17A9
:101F70008A1A1146642201FB02F29B1ABB61D7F850
:101F8000A030534A82FB03125211DB17D21A7A6136
:101F9000D7F8A03083EAE371A1EBE3714C4B83FBEC
:101FA00001235A11CB17D61A642306FB03F3CE1A6A
:101FB000F96C3961D7F8B810454B83FB01235A11EE
:101FC000CB17D11AF960D7F8B83083EAE371A1EBE7
:101FD000E3713F4B83FB01235A11CB17D41A6423BF
:101FE00004FB03F3CC1AB96D3A4B83FB01239A151A
:101FF000CB17D01AB860B96D364B83FB01239A1505
:10200000CB17D31A344A02FB03F3CB1A83EAE375E6
:10201000A5EBE3757D60796D2E4B83FB01239A154B
:10202000CB17D51A3D60796D2A4B83FB01239A1596
:10203000CB17D31A284A02FB03F3CB1A83EAE375C2
:10204000A5EBE375396D214B83FB01239A11CB1767
:10205000D01A396D1D4B83FB01239A11CB17D31A6C
:102060004FF47A7202FB03F3CB1A002BB8BF5B422A
:102070001393129011953D6810957D680F95B8687F
:102080000E900D94F8680C90D7F8BC300B9339691A
:102090000A9109967A690892BB690793FE690696C8
:1020A0003D6A05957C6A0494B86A0390F96A0291C6
:1020B0003A6B01927B6B0093634642467146074838
:1020C00006F05EF923E000BF0000C842D34D621065
:1020D0001F85EB516BCA5F6B80969800E8BA0008C9
:1020E00004228849884800F08BFC8849864800F023
:1020F00061FD874B00221A60864B1B680133854ABD
:102100001360844B1B681946834806F039F9834BEA
:102110001B68D7F8C820D31AC72B40F2A2807F4A89
:10212000D7F8C83013607E4B1B78002B40F09980A5
:1021300000233B640023FB637A4BBB6307F13C0144
:1021400007F1400207F1380300930B46D7F8C81097
:102150006D4801F037FC6E4B1B68002B03D1002348
:102160003B640023FB63704B1E68704BD3F800C0C8
:102170006F4BD3F800E06F4B1B686F4A1268D7F8BB
:10218000C8106E48A0FB01018909386CFC6BBD6B5F
:1021900008950794069005914FF49661049168495B
:1021A0000391684902910192009373466246314659
:1021B000654801F0DBFF644802F01AFAC7F89C009A
:1021C000614802F01FFAC7F898005F4802F025FA4C
:1021D000C7F894005C4802F02BFAC7F89000D7F8D3
:1021E0009030D7F89420D7F89810D7F89C00FFF7D4
:1021F00027FA564B1B680133544A1360544B1B6833
:102200000133534A1360514B1B68012B16D15148BF
:1022100006F01EF9D7F89C104F4806F0B1F8D7F831
:1022200098104D4806F0ACF8D7F894104A4806F0DC
:10223000A7F8D7F89010494806F0A2F8434B196860
:10224000474BA3FB0123DA0813469B0013449A0073
:102250001344CA1A002A04D1D7F89C10414806F04A
:102260008FF8414B1B68D7F8C820D31A41F2873248
:1022700093427FF6EAAB3C4AD7F8C83013603B483C
:1022800006F0E6F83A4B19683A4B1A683A4B186868
:10229000204B1B6800930346384806F071F82C4B1E
:1022A0001B681F4A12781946354806F069F8354B05
:1022B0001968354B1A68354B1B68354806F060F8CD
:1022C000134B1C6802F010FC03461946314802F01B
:1022D000F5FA03461A4621462F4806F051F82F4BCF
:1022E0001B68002B06D02E492E4806F049F82B4BD0
:1022F00000221A602C4806F0ABF8FFF7A6BB00BF1F
:10230000FFF7A3BB54BF000880020020CDCCCC3F18
:10231000280500204805002074BB00083005002077
:10232000540500200000C642180500201C050020AE
:10233000000000202005002024050020D34D62105D
:1023400088B6E746F8552413880300202C050020A2
:102350004C0500209CBB0008BCBB0008C4BB0008A7
:102360001F85EB51D0BB000850050020E0BB0008E2
:102370003C0500204005002044050020F8BB000873
:102380002CBC0008F80100201007002014070020D2
:1023900050BC0008FC01002084BC00080C07002091
:1023A000CC060020A4BC0008B8BC000880B590B0E2
:1023B00000AF07F1180328220021184606F05CF947
:1023C0003B1D00221A605A609A60DA601A6101238C
:1023D000BB614FF48033FB6100233B620123BB628E
:1023E00002237B634FF48033BB634FF4E013FB6342
:1023F00007F11803184603F0B7FA0346002B01D083
:1024000000F019F80F237B600223BB600023FB6000
:102410004FF480633B6100237B613B1D0221184622
:1024200003F010FE0346002B01D000F004F800BFBB
:102430004037BD4680BD80B400AF72B600BF00BF5C
:10244000FDE780B483B000AF7860396000BF0C371F
:10245000BD4680BC7047000080B485B000AF154B0E
:102460009B69144A43F001039361124B9B6903F08B
:102470000103BB60BB680F4BDB690E4A43F080531E
:10248000D3610C4BDB6903F080537B607B680A4BA4
:102490005B68FB60FB6823F0E063FB60FB6843F074
:1024A0000073FB60044AFB68536000BF1437BD46ED
:1024B00080BC7047001002400000014080B400AFB3
:1024C00000BFFDE780B400AF00BFFDE780B400AF00
:1024D00000BFFDE780B400AF00BFFDE780B400AFF0
:1024E00000BFFDE780B400AF00BFBD4680BC7047B1
:1024F00080B400AF00BFBD4680BC704780B400AF61
:1025000000BFBD4680BC704780B500AF02F0DAFA6C
:1025100000BF80BD80B500AF024802F04DFE00BF95
:1025200080BD00BF8406002080B500AF024802F0E5
:1025300043FE00BF80BD00BF4006002080B500AF55
:10254000024804F0E7F900BF80BD00BFB0050020DD
:1025500080B500AF024804F0DDF900BF80BD00BFC8
:10256000F805002080B400AF01231846BD4680BCAA
:10257000704780B582B000AF7860396006F0EAF845
:10258000034616221A604FF0FF3318460837BD463F
:1025900080BD80B582B000AF78604FF0FF317868C1
:1025A000FFF7E7FF00BFFDE780B586B000AFF8603A
:1025B000B9607A6000237B610AE0AFF300800146D6
:1025C000BB685A1CBA60CAB21A707B6901337B615E
:1025D0007A697B689A42F0DB7B6818461837BD46FB
:1025E00080BD80B483B000AF78604FF0FF331846F1
:1025F0000C37BD4680BC704780B483B000AF7860B4
:1026000039603B684FF400525A60002318460C377B
:10261000BD4680BC704780B483B000AF78600123B2
:1026200018460C37BD4680BC704780B485B000AFFB
:10263000F860B9607A60002318461437BD4680BC44
:102640007047000080B586B000AF7860144A154B23
:10265000D31A7B617B693B61134B1B68002B02D152
:10266000114B124A1A60104B1A687B6813443A697E
:102670009A4207D206F06EF803460C221A604FF019
:10268000FF3309E0084B1B68FB60074B1A687B6847
:102690001344054A1360FB6818461837BD4680BDD1
:1026A000005000200004000064050020680800209D
:1026B00080B400AF00BFBD4680BC704780B500AF9E
:1026C000114B124A1A60104B4FF4E1325A600E4B14
:1026D00000229A600C4B0022DA600B4B00221A6138
:1026E000094B0C225A61084B00229A61064B0022CA
:1026F000DA61054803F0DAFE0346002B01D0FFF74C
:102700009AFE00BF80BD00BF680500200038014070
:1027100080B500AF114B124A1A60104B4FF496422D
:102720005A600E4B00229A600C4B0022DA600B4B71
:1027300000221A61094B0C225A61084B00229A614F
:10274000064B0022DA61054803F0B0FE0346002B79
:1027500001D0FFF770FE00BF80BD00BFB0050020B4
:102760000044004080B500AF114B124A1A60104B74
:102770004FF461425A600E4B00229A600C4B0022CB
:10278000DA600B4B00221A61094B0C225A61084B8C
:1027900000229A61064B0022DA61054803F086FEAA
:1027A0000346002B01D0FFF746FE00BF80BD00BFEF
:1027B000F80500200048004080B58CB000AF78607C
:1027C00007F1200300221A605A609A60DA607B6881
:1027D0001B68814A934232D1804B9B697F4A43F404
:1027E000804393617D4B9B6903F48043FB61FB69EC
:1027F0007A4B9B69794A43F004039361774B9B6959
:1028000003F00403BB61BB694FF400733B62022316
:102810007B620323FB6207F120031946704802F034
:1028200009FE4FF480633B6200237B620023BB629E
:1028300007F1200319466A4802F0FCFDC8E07B68F6
:102840001B68684A93425ED1644BDB69634A43F478
:102850000033D361614BDB6903F400337B617B6937
:102860005E4B9B695D4A43F0040393615B4B9B693C
:1028700003F004033B613B6904233B6202237B6258
:102880000323FB6207F120031946554802F0D2FDED
:1028900008233B6200237B620023BB6207F1200315
:1028A00019464F4802F0C6FD4F4B504A1A604E4B36
:1028B00000225A604C4B00229A604B4B8022DA6017
:1028C000494B00221A61484B00225A61464B202294
:1028D0009A61454B0022DA61434802F04BFA034605
:1028E000002B01D0FFF7A7FD7B683F4ADA633E4A21
:1028F0007B68536200220021262002F0EBF926209B
:1029000002F014FA64E07B681B68394A93425FD195
:10291000324BDB69314A43F48023D3612F4BDB69AF
:1029200003F48023FB60FB682C4B9B692B4A43F02C
:1029300008039361294B9B6903F00803BB60BB68E4
:102940004FF480633B6202237B620323FB6207F147
:1029500020031946274802F06DFD4FF400633B62E7
:1029600000237B620023BB6207F120031946214844
:1029700002F060FD204B214A1A601F4B10225A6062
:102980001D4B00229A601C4B8022DA601A4B0022F9
:102990001A61194B00225A61174B00229A61164B9B
:1029A0000022DA61144802F0E5F90346002B01D059
:1029B000FFF741FD7B68104A9A630F4A7B685362B8
:1029C00000220021272002F085F9272002F0AEF92D
:1029D00000BF3037BD4680BD0038014000100240C6
:1029E0000008014000440040400600206C00024006
:1029F00000480040000C0140840600201C000240FA
:102A000080B58AB000AFF860B9607A604FF4847224
:102A10000021F86805F030FEFB68BA681A60FB68B0
:102A20007A685A60FB684FF07F52C3F8D820FB6881
:102A30004FF07C52C3F8DC20FB685B4AC3F8E0200F
:102A4000FB685A4AC3F8E420FB684FF07E52C3F893
:102A5000E820FB68C822C3F8EC20FB684FF49672AC
:102A6000C3F8F0204FF000037B624FF000033B629D
:102A70000023FB6120E0FA6913465B0013449B00CE
:102A80001A46BB6813441B681946786AFEF734F887
:102A900003467B62FA6913465B0013449B001A46A7
:102AA000BB6813445B681946386AFEF725F803468D
:102AB0003B62FB690133FB61FA697B689A42DADBAE
:102AC0007B68002B13DD7868FEF7CAF803461946C9
:102AD000786AFEF7CDF903467B627868FEF7C0F8A6
:102AE00003461946386AFEF7C3F903463B62FB68A2
:102AF0007A6A9A60FB683A6ADA60FB682C4A1A6163
:102B0000FB684FF00002DA61FB68DA69FB689A61E2
:102B1000FB689A69FB685A610023BB6118E00023D7
:102B20007B610FE0F968BA6913465B0013445B00F0
:102B30007A69134408334FF0000241F823207B697F
:102B400001337B617B69052BECDDBB690133BB6124
:102B5000BB69052BE3DDFB684FF07E529A65FB688D
:102B60009A6DFB68DA63FB68DA6BFB681A62FB68D4
:102B70004FF08142C3F8AC20FB68D3F8AC20FB686F
:102B8000C3F89020FB68D3F89020FB685A67FB6875
:102B90000022C3F8B020FB680022C3F8B42000BFB5
:102BA0002837BD4680BD00BF0AD7233D0000104234
:102BB000CDCCCC3F80B485B000AF786039607B6805
:102BC0000122C3F800217B683A68C3F804217B68BE
:102BD0003A681A617B684FF00002DA617B684FF057
:102BE0000002C3F8DC200023FB6034E07968FA6857
:102BF00013465B001344DB000B4428334FF0000204
:102C00001A607968FA6813465B001344DB000B44D2
:102C1000283319687B68FA68143243F822107968FF
:102C2000FA6813465B001344DB000B4434334FF067
:102C300000021A607968FA6813465B001344DB00EF
:102C40000B44343319687B68FA68263243F8221043
:102C5000FB680133FB60FB68052BC7DD00BF00BFCD
:102C60001437BD4680BC7047B0B592B000AF7860F5
:102C700039604FF000013868FEF7EEF90346002B8B
:102C800040F0D6817B689C687B685B693968184630
:102C9000FEF73AF8034619462046FDF72DFF034696
:102CA0001A467B689A607B68DC687B689B69396838
:102CB0001846FEF729F8034619462046FDF71CFF83
:102CC00003461A467B68DA607B681C697B68DB69AF
:102CD00039681846FEF718F8034619462046FDF7EE
:102CE0000BFF03461A467B681A617B682033BB637F
:102CF00000237B6452E0BB6B7A6C53F82240BB6BC1
:102D000048337A6C53F8223039681846FDF7FCFFD7
:102D1000034619462046FDF7EFFE03461946BB6BF6
:102D20007A6C43F82210BB6B18337A6C53F822503C
:102D3000BB6B60337A6C53F8223039681846FDF764
:102D4000E3FF03461A46BB6B03F1180411462846FD
:102D5000FDF7D2FE03461A467B6C44F82320BB6B7A
:102D600030337A6C53F82250BB6B78337A6C53F85B
:102D7000223039681846FDF7C7FF03461A46BB6B79
:102D800003F1300411462846FDF7B6FE03461A4605
:102D90007B6C44F823207B6C01337B647B6C052BBC
:102DA000A9DD00233B6471E03A6C13465B001344D9
:102DB000DB001A46BB6B13441D683A6C13465B007C
:102DC0001344DB001A46BB6B1344DB6839681846B2
:102DD000FDF79AFF034619463A6C13465B0013440D
:102DE000DB001A46BB6B9C182846FDF785FE0346A0
:102DF00023603A6C13465B001344DB001A46BB6B3E
:102E000013445D683A6C13465B001344DB001A46BA
:102E1000BB6B13441B6939681846FDF775FF034601
:102E200019463A6C13465B001344DB001A46BB6B31
:102E30009C182846FDF760FE034663603A6C134613
:102E40005B001344DB001A46BB6B13449D683A6C6D
:102E500013465B001344DB001A46BB6B13445B69EB
:102E600039681846FDF750FF034619463A6C134679
:102E70005B001344DB001A46BB6B9C182846FDF729
:102E80003BFE0346A3603B6C01333B643B6C052B6C
:102E90008ADD39683868FDF737FF03467B63396898
:102EA000786BFDF731FF03463B63634B07F10C047E
:102EB0001D460FCD0FC495E8030084E803000023EE
:102EC000FB63B0E0FB6B012B03DC7B68D3F8D830ED
:102ED00002E07B68D3F8DC30FB62FB6BDB0048333D
:102EE0003B4453F83C3CBB62FB6BDB0048333B4448
:102EF00053F8383C7B62BA6A13465B001344DB002C
:102F00001A46BB6B1344BA6A53F82250396BF86AFD
:102F1000FDF7FAFE034649491846FDF7A9FF0346A7
:102F20001946BA6A13465B001344DB001A46BB6BB2
:102F30009C182846FDF7E0FD03461A46BB6A44F894
:102F40002320BA6A13465B001344DB001A46BB6BAE
:102F500013447A6A53F82250796BF86AFDF7D4FE6D
:102F600003464FF080411846FDF782FF034619469D
:102F7000BA6A13465B001344DB001A46BB6B9C180D
:102F80002846FDF7B9FD03461A467B6A44F823201C
:102F90007A6A13465B001344DB001A46BB6B13448A
:102FA000BA6A53F82250796BF86AFDF7ADFE034612
:102FB0004FF080411846FDF75BFF034619467A6AD9
:102FC00013465B001344DB001A46BB6B9C18284673
:102FD000FDF792FD03461A46BB6A44F823207A6A3D
:102FE00013465B001344DB001A46BB6B13447A6A3A
:102FF00053F822503968F86AFDF786FE03461946F1
:103000007A6A13465B001344DB001A46BB6B9C18BC
:103010002846FDF771FD03461A467B6A44F82320D3
:10302000FB6B0133FB63FB6B022B7FF74BAF00E0C5
:1030300000BF4837BD46B0BDBCBC000800004040E2
:10304000B0B5ACB000AFF860B9607A60FB68D3F897
:103050000031002B03D0FB68D3F8043101E0FB689A
:103060001B69C7F88C30FB689868FB681968BA68F8
:1030700013465B0013449B000B441B681946FDF785
:1030800039FD0346C7F88830FB68D868FB681968C3
:10309000BA6813465B0013449B000B445B681946F7
:1030A000FDF728FD0346C7F88430FB681968BA6845
:1030B00013465B0013449B000B449B681946D7F8EA
:1030C0008C00FDF717FD0346C7F88030D7F888104D
:1030D000D7F88800FDF718FE03461C46D7F8841081
:1030E000D7F88400FDF710FE034619462046FDF789
:1030F00003FD03461C46D7F88010D7F88000FDF783
:1031000003FE034619462046FDF7F6FC0346184623
:1031100007F0B6FAF867B449F86FFDF793FF034676
:10312000002B01D000230DE2F96FD7F88800FDF7DE
:103130009FFE0346BB67F96FD7F88400FDF798FE42
:1031400003467B67FB68D3F80031002B06D1F96F8B
:10315000D7F88000FDF78CFE034601E04FF0000336
:103160003B67FB682033FB660023C7F8AC3045E0C3
:10317000D7F8AC2013465B001344DB001A46FB6E05
:1031800013441B68B96F1846FDF7BEFD03461C4685
:10319000D7F8AC2013465B001344DB001A46FB6EE5
:1031A00013445B68796F1846FDF7AEFD0346194678
:1031B0002046FDF7A1FC03461C46D7F8AC20134679
:1031C0005B001344DB001A46FB6E13449B68396FA7
:1031D0001846FDF799FD034619462046FDF78CFC7D
:1031E00003461A46D7F8AC309B00B0333B4443F853
:1031F0006C2CD7F8AC300133C7F8AC30D7F8AC3012
:10320000052BB5DD7B6CB96F1846FDF77DFD0346D8
:103210001C46BB6C796F1846FDF776FD03461946D0
:103220002046FDF769FC03461C46FB6C396F1846C7
:10323000FDF76AFD034619462046FDF75DFC03468F
:103240001A46FB68D3F8E03019461046FDF754FCE7
:103250000346BB666549B86EFDF7F4FE0346002BD6
:1032600001D000236EE1F96F7868FDF743FC034657
:103270007B66796E786EFDF747FD03461C46FB685A
:10328000D3F8E430B96E1846FDF73EFD0346194603
:103290002046FDF7F5FE0346002B01D0002351E147
:1032A000B96E4FF07E50FDF7E3FD03463B66002309
:1032B000C7F8A83018E0D7F8A8309B00B0333B44DB
:1032C00053F86C3C396E1846FDF71EFD03461A464E
:1032D000D7F8A8309B00B0333B4443F8842CD7F890
:1032E000A8300133C7F8A830D7F8A830052BE2DDA5
:1032F000FB68D3F80031002B05D04FF000037B634F
:103300004FF000033B640023C7F8A43022E0FB68C1
:10331000D7F8A420023253F82240D7F8A4309B00FB
:10332000B0333B4453F8843C796E1846FDF7ECFC0F
:10333000034619462046FDF7DFFB03461946FB68A6
:10334000D7F8A420023243F82210D7F8A430013372
:10335000C7F8A430D7F8A430052BD8DD0023C7F870
:10336000A03038E0FB6ED7F8A02053F82230B96FB8
:103370001846FDF7C9FC03461C46FB6E1833D7F808
:10338000A02053F82230796F1846FDF7BDFC0346A4
:1033900019462046FDF7B0FB03461C46FB6E303352
:1033A000D7F8A02053F82230396F1846FDF7ACFC4F
:1033B000034619462046FDF79FFB03461A46D7F8F9
:1033C000A0309B00B0333B4443F89C2CD7F8A0308E
:1033D0000133C7F8A030D7F8A030052BC2DD002399
:1033E000C7F89C3049E000BF6F12833A5F708930A4
:1033F0000023C7F8983037E0D7F89C2013465B00CD
:103400001344DB001A46FB6E1344D7F8982053F898
:103410002250D7F89C309B00B0333B4453F8842CA7
:10342000D7F898309B00B0333B4453F89C3C194686
:103430001046FDF769FC03461946D7F89C20134651
:103440005B001344DB001A46FB6E9C182846FDF710
:1034500051FB03461A46D7F8983044F82320D7F892
:1034600098300133C7F89830D7F89830052BC3DD72
:10347000D7F89C300133C7F89C30D7F89C30052B27
:10348000B6DD0023C7F8943057E0D7F89430013305
:10349000C7F8903048E0D7F8942013465B001344F7
:1034A000DB001A46FB6E1344D7F8902053F8220035
:1034B000D7F8902013465B001344DB001A46FB6EDE
:1034C0001344D7F8942053F822301946FDF714FB23
:1034D00003464FF07C511846FDF716FC0346FB658A
:1034E000D7F8902013465B001344DB001A46FB6EAE
:1034F0001A44D7F89430F96D42F82310D7F8941095
:103500000B465B000B44DB001946FB6E0B44D7F8FF
:10351000941052F82110D7F8902043F82210D7F8D1
:1035200090300133C7F89030D7F89030052BB2DDDA
:10353000D7F894300133C7F89430D7F89430052B7E
:10354000A3DD01231846B037BD46B0BD90B59BB092
:1035500000AFF860B9607A603B6000237B660023AF
:103560003B6640E03B6E9B00BA6813441B684FF01B
:1035700000011846FDF770FD0346002B2BD13B6E72
:103580009B00BA6813441B688F491846FDF76EFD0F
:103590000346002B1FD13B6E9B007A6813441B68C7
:1035A0007B64FB683A6E2E3253F822307A6C9A4272
:1035B00013D03A687B6CD21AFB68D3F8EC309A428D
:1035C0000DD27B6E5A1C7A669B0068333B443A6E80
:1035D00043F8542C04E000BF02E000BF00E000BF4D
:1035E0003B6E01333B66FB685B683A6E9A4202DAD7
:1035F0003B6E072BB6DD0123FB6539E0FB6D9B00BD
:1036000068333B4453F8543C7B63FB6D013BBB6523
:103610000FE0BB6D591CBB6D9B0068333B4453F8F6
:10362000542C8B0068333B4443F8542CBB6D013B56
:10363000BB65BB6D002B10DBBB6D9B0068333B444F
:1036400053F8543C9B007A6813441A687B6B9B00C8
:1036500079680B441B689A42DBD8BB6D01339B0031
:1036600068333B447A6B43F8542CFB6D0133FB65A4
:10367000FA6D7B6E9A42C1DBFB68D3F8B030002B49
:1036800011D17B6E002B0CDDFB680122C3F8B0204A
:103690007B699B007A6813441A68FB68C3F8B420FE
:1036A00001E00023D9E0FB685A69FB685B691946B1
:1036B0001046FDF729FB03461C46FB689A69FB6828
:1036C0009B6919461046FDF71FFB03461946204625
:1036D000FDF712FA0346184606F0D2FF38643B495C
:1036E000386CFDF7AFFC0346002B04D0FB68384A6A
:1036F000C3F8D82011E04FF07E51386CFDF7A2FCE2
:103700000346002B04D0FB68304AC3F8D82004E0FD
:10371000FB684FF07F52C3F8D82000237B6500235D
:103720003B6569E03B6D9B0068333B4453F8543C78
:10373000FB63FB6B9B007A6813441B68BB634FF011
:103740000003FB64FB68D3F8B430BA6B9A420ED91D
:10375000FB68D3F8B430BA6BD31A1846FDF77CFA7D
:1037600003461C491846FDF783FB0346FB644FF0F4
:103770007C51F86CFDF784FC0346002B02D04FF01F
:103780007C53FB64F96CF868FFF76EFAFB68BA6B60
:10379000C3F8B420FB6B9B00BA6813441B681A463D
:1037A000F96BF868FFF74CFC0346002B14D07B6DD7
:1037B00001337B65FB680022C3F8F820FB68BA6B15
:1037C000C3F8F4200FE000BF000048429A99993EE8
:1037D000CDCC4C3D00007A44FB68D3F8F8305A1C3D
:1037E000FB68C3F8F820FB68FA6B2E32B96B43F81C
:1037F00022103B6D01333B653A6D7B6E9A4291DB43
:10380000FB687A6EC3F8FC20FB68D3F8B4303A68E2
:103810009A4221D9FB68D3F8B4303A68D31A1846D3
:10382000FDF71AFA03460F491846FDF721FB034638
:10383000BB644FF07C51B86CFDF722FC0346002BB3
:1038400002D04FF07C53BB64B96CF868FFF70CFAF8
:10385000FB683A68C3F8B4207B6D18466C37BD46E8
:1038600090BD00BF00007A4490B587B000AFF8600B
:10387000B9607A603B604FF000037B61FB68D3F86E
:10388000B430BA689A420ED9FB68D3F8B430BA683B
:10389000D31A1846FDF7E0F9034631491846FDF7FB
:1038A000E7FA03467B614FF07C517869FDF7E8FB4E
:1038B0000346002B02D04FF07C537B61FB689C6871
:1038C000FB685B6979691846FDF71EFA03461946DD
:1038D0002046FDF711F903461A467B681A60FB681B
:1038E000DC68FB689B6979691846FDF70DFA0346A9
:1038F00019462046FDF700F903461A463B681A6050
:10390000FB68D3F80031002B09D0FB68D3F8042101
:10391000BB6A1A607B6B4FF000021A6014E0FB6810
:103920001C69FB68DB6979691846FDF7EDF9034608
:1039300019462046FDF7E0F803461A46BB6A1A60AE
:10394000FB68DA697B6B1A60FB685A69FB6A1A606C
:10395000FB689A693B6B1A6000BF1C37BD4690BD7F
:1039600000007A4480B485B000AF786039600023ED
:10397000FB600023BB6016E07B68BA682E3253F808
:103980002230002B0CD07B68BA682E3253F82230DC
:103990003A68D31AB3F5967F02D2FB680133FB6015
:1039A000BB680133BB607B685B68BA689A4202DA25
:1039B000BB68072BE0DDFB6818461437BD4680BCAA
:1039C0007047000080B58AB000AFF860B9607A60D7
:1039D0003B60B968F868FFF7C5FF3862FB681A6A90
:1039E000FB68DB6B19461046FDF786F80346FB6162
:1039F0004FF00001F869FDF743FB0346002B04D0AC
:103A0000F86906F03DFE034601E04FF00003BB619C
:103A1000FB68D3F8E8301946B869FDF729FA034680
:103A20007B624FF07C51786AFDF70CFB0346002B5C
:103A300002D04FF07C537B622A49786AFDF720FB65
:103A40000346002B01D0274B7B62FB68D3F8B030D4
:103A5000002B0BD0FB68D3F8F430BA68D21AFB689D
:103A6000D3F8F0309A4201D2012300E000237B61B9
:103A70007B69002B04D03B6A022B01DD012300E0AF
:103A800000233B617B68002B08D03B69002B14BFEF
:103A900001230023DBB21A467B681A603B6B002BC4
:103AA00002D03B6B7A6A1A603B68002B15D03B69E9
:103AB000002B03D03B6A02335B0005E03B6A002B1E
:103AC00001DD032300E000233A6813603B681B68B4
:103AD000132B02DD3B6813221A6000BF2837BD4656
:103AE00080BD00BFCDCCC74280B58AB002AF786040
:103AF00039604FF000013868FDF7A4FA0346002B47
:103B000002D04FF0FF3300E001233B613B6823F01C
:103B10000043FB60F868FDF7D3FA0346FB61F869E0
:103B2000FDF79EF803461946F868FCF7E3FF0346E5
:103B30001A491846FDF7E8F80346184606F062FEF3
:103B400003461846FDF7BCFA0346BB61BB69092B67
:103B500004DDFB690133FB610023BB6100237B6152
:103B60003B69002B07DA7B695A1C7A611A467B682D
:103B700013442D221A707B697A68D018BB690093B0
:103B8000FB69074A082104F06BFC02467B69134479
:103B90007B617B6918462037BD4680BD000020410F
:103BA000D4BC000880B58AB002AF786039604FF0AD
:103BB00000013868FDF746FA0346002B02D04FF0AB
:103BC000FF3300E001233B613B6823F00043FB60CF
:103BD000F868FDF775FA0346FB61F869FDF740F8F0
:103BE00003461946F868FCF785FF03461A4918464C
:103BF000FDF78AF80346184606F004FE0346184609
:103C0000FDF75EFA0346BB61BB69632B04DDFB690C
:103C10000133FB610023BB6100237B613B69002B07
:103C200007DA7B695A1C7A611A467B6813442D2295
:103C30001A707B697A68D018BB690093FB69074AE0
:103C4000082104F00DFC02467B6913447B617B690B
:103C500018462037BD4680BD0000C842DCBC0008C5
:103C60002DE9B04F96B004AF7861396111461A461C
:103C70000B46FB731346BB737B69002B01DBFB7B9D
:103C800000E0BB7B87F833307B69DA173B607A60F2
:103C9000D7E90023C7E91023D7E91023002B08DA5E
:103CA000D7E910230021D2F1000861EB0309C7E92D
:103CB0001089D7E91001474A4FF00003FDF726FAB3
:103CC00002460B461346FB63D7E91001414A4FF009
:103CD0000003FDF71BFAC7E90A23D7E90A89424620
:103CE0004B464FF000004FF00001190141EA1271FC
:103CF000100102460B46B2EB080463EB09054FF0D6
:103D000000024FF00003AB0043EA9473A200144694
:103D10001D46C7E90845D7E908012E4A4FF00003C0
:103D2000FDF7F4F902460B461346BB63D7E90801D9
:103D3000284A4FF00003FDF7E9F9C7E90623D7E960
:103D4000062312F5FA7A43F1000B4FF47A724FF022
:103D5000000350465946FDF7D9F902460B46134673
:103D60007B637B6B42F20F72934207DD7B6BA3F5A3
:103D70001C53103B7B63BB6B0133BB63BB6B3B2BA7
:103D800005DDBB6B3C3BBB63FB6B0133FB633B69FA
:103D9000032B0DD197F8333002937B6B0193BB6BF0
:103DA0000093FB6B0C4A1821B86E04F059FB0CE031
:103DB00097F8333002937B6B0193BB6B0093FB6BE3
:103DC000064A1821B86E04F04BFB00BF4837BD46C9
:103DD000BDE8B08F80969800E4BC0008F8BC0008ED
:103DE00080B584B002AF786039603B68009353239C
:103DF0004E2202217868FFF733FF00BF0837BD4627
:103E000080BD80B584B002AF786039603B680093B4
:103E10005723452203217868FFF722FF00BF0837A8
:103E2000BD4680BD80B485B000AF78600023FB73D1
:103E30000123BB6009E0BB687A6813441A78FB7BF6
:103E40005340FB73BB680133BB60BB687A681344A3
:103E50001B78002B05D0BB687A6813441B782A2B8B
:103E6000E9D1FB7B18461437BD4680BC7047000083
:103E700080B584B000AF78607868FFF7D3FF034661
:103E8000FB737868FCF764F90346BB60BB687A682B
:103E9000D018FB7B034A062104F0E2FA00BF10377A
:103EA000BD4680BD0CBD000880B582B000AF786013
:103EB00003223E49786804F0F4FB0346002B01D14D
:103EC00001236EE003223A49786804F0EAFB0346D6
:103ED000002B01D1022364E003223649786804F004
:103EE000E0FB0346002B01D103235AE003223249B1
:103EF000786804F0D6FB0346002B01D1042350E080
:103F000003222E49786804F0CCFB0346002B01D134
:103F1000052346E003222A49786804F0C2FB0346E1
:103F2000002B01D106233CE003222649786804F0E7
:103F3000B8FB0346002B01D1072332E003222249BC
:103F4000786804F0AEFB0346002B01D1082328E07B
:103F500003221E49786804F0A4FB0346002B01D11C
:103F600009231EE003221A49786804F09AFB0346ED
:103F7000002B01D10A2314E003221649786804F0CB
:103F800090FB0346002B01D10B230AE003221249C8
:103F9000786804F086FB0346002B01D10C2300E077
:103FA000012318460837BD4680BD00BF14BD000878
:103FB00018BD00081CBD000820BD000824BD000875
:103FC00028BD00082CBD000830BD000834BD000825
:103FD00038BD00083CBD000840BD000890B589B060
:103FE00000AFF860B9607A603B604F4BFB614F4BAC
:103FF0001B684FF000011846FDF71AF80346002B26
:104000001BD03868FCF72CFE034649491846FCF7DC
:104010002FFF0346BB614749B869FCF775FE0346AD
:104020007B61786906F04AFB03463F491846FCF776
:104030006BFE03461A463D4B1A603C4B1B683B61C6
:104040003D49B868FCF7FEFF0346002B02D03A4B0F
:10405000BB6008E03949B868FDF712F80346002B49
:1040600001D0364BBB603449F868FCF7EBFF0346E0
:10407000002B02D0304BFB6008E03049F868FCF7B9
:10408000FFFF0346002B01D02C4BFB602A497868C8
:10409000FCF7D8FF0346002B02D0274B7B6008E0DB
:1040A00026497868FCF7ECFF0346002B01D0234B30
:1040B0007B601F49B868FCF727FE0346F96918467C
:1040C000FCF7D6FE03461846FCF7FAFF02463B68AB
:1040D0001A44BB6B1A601649F868FCF715FE0346D4
:1040E00039691846FCF7C4FE03461846FCF7E8FF9A
:1040F00002463B6B1A44FB6B1A607A6B13469B00BB
:1041000013445B001C460E497868FCF7FDFD03462E
:104110001846FCF7D5FF0346E2183B6C1A6000BF57
:104120002437BD4690BD00BFF36BD947C8060020B9
:104130008096184B35FA8E3C000020C100002041CB
:1041400000007A4480B483B000AF78607B680022BE
:104150001A707B68002283F864207B68002283F851
:10416000D22000BF0C37BD4680BC704790B5C5B0AB
:1041700008AFF860B9607A603B600123C7F8183176
:104180000A23C7F81C317749D7F82001FCF75AFFFA
:104190000346002B02D0734BC7F82031412387F828
:1041A000EB30714BC7F8E430704BC7F8E030D7F80C
:1041B000E010B868FCF7A8FD03461C46D7F8E410E9
:1041C0007868FCF7A1FD034619462046FCF794FCED
:1041D0000346C7F8DC30BB6883F00043D7F8E4102F
:1041E0001846FCF791FD03461C46D7F8E0107868A6
:1041F000FCF78AFD034619462046FCF77DFC034682
:10420000C7F8D830D7F8E010D7F80001FCF77CFDEC
:1042100003461C46D7F8E410D7F80401FCF774FDF8
:10422000034619462046FCF767FC0346C7F8D4301E
:10423000D7F8003183F00043D7F8E4101846FCF7B4
:1042400063FD03461C46D7F8E010D7F80401FCF7DD
:104250005BFD034619462046FCF74EFC0346C7F8B3
:10426000D030D7F8DC30BB60D7F8D8307B60D7F8D7
:10427000D430C7F80031D7F8D030C7F8043107F18F
:104280009C03049307F1A003039307F1A403029393
:10429000D7F810310193D7F80C310093D7F80831D3
:1042A0003A687968B868FFF799FED7F8A43007F143
:1042B000840211461846FFF793FDD7F8A03007F1A6
:1042C0006C0211461846FFF79CFDD7F81431C7F869
:1042D000CC30D7F8CC30264AA2FB0323D90A254B91
:1042E000A3FB01231A0913465B001344DB00CA1A1F
:1042F000C7F8C820D7F8CC301F4AA2FB03235909BE
:104300001D4BA3FB01235A0913461B019B1A9B005B
:10431000CA1AC7F8C420D7F8CC10174BA3FB012347
:104320005A0913461B019B1A9B00CA1AC7F8C020E2
:1043300007F16000D7F8C0300193D7F8C43000937C
:10434000D7F8C8300D4A0A2104F08AF83123202B0F
:1043500016D03123A3F1300213469B0013445B00B7
:104360001A460EE0CDCCCC3D431DAF3EB28F703F20
:10437000C5B3A291ABAAAAAA8988888844BD0008BF
:1043800000223723303B1344C7F8BC308C48FFF77A
:104390008BFDC7F8B8003223A3F1300213469B000F
:1043A00013445B001A463623303B1344C7F8B4303D
:1043B00007F15000D7F8B4300193D7F8B830009324
:1043C000D7F8BC307F4A102104F04AF8D7F8001122
:1043D000D7F80001FCF798FC03461C46D7F80411F7
:1043E000D7F80401FCF790FC034619462046FCF779
:1043F00083FB0346184606F043F903467249184604
:10440000FCF782FC0346C7F8B0307049D7F8B0001B
:10441000FCF77AFC0346C7F8AC30D7F80411D7F89C
:10442000000106F02BF9034669491846FCF76CFCBD
:104430000346C7F8EC304FF00001D7F8EC00FCF76A
:1044400001FE0346002B07D06249D7F8EC00FCF7C9
:1044500053FB0346C7F8EC30D7F89C301846FCF7FE
:10446000FFFB03465C491846FCF702FD0346C7F80C
:10447000A83007F14403D7F8A8101846FFF734FB1B
:1044800007F13803D7F820111846FFF78BFB07F127
:104490002C03D7F8B0101846FFF784FB07F1200370
:1044A000D7F8EC101846FFF71FFB07F11403D7F8F5
:1044B000AC101846FFF776FBF86807F1600207F1C9
:1044C0004403059307F138030493D7F81C31039391
:1044D000D7F81831029307F16C03019307F18403B5
:1044E000009313463D4A642103F0BAFFFB68184667
:1044F000FFF7BEFCFB6803F1640097F8EB30D7F8D8
:104500001821002A01DD412200E04E2207F160015E
:10451000069207F15002059207F12002049207F17A
:104520002C02039207F16C02029207F184020192BD
:1045300000930B462A4A6E2103F092FFFB68643316
:104540001846FFF795FCFB6803F1D20007F1200243
:1045500007F11403019307F12C0300931346214A3A
:10456000642103F07DFFFB68D2331846FFF780FC1F
:10457000D7F81831002B10DDFB6803F59B7007F1AD
:10458000380207F13803019307F13803009313460B
:10459000154A5A2103F064FF07E0FB6803F59B739B
:1045A000124A5A21184603F05BFFFB6803F59B7320
:1045B0001846FFF75DFC00BFF437BD4690BD00BF55
:1045C00054BD000844BD0008C0CFF83F560EED3F73
:1045D000E12E65420000B44300007A4460BD00084B
:1045E0008CBD0008B8BD0008D8BD000808BE000892
:1045F00080B483B000AF78607B6818460C37BD4646
:1046000080BC704780B483B000AF78607B6864334F
:1046100018460C37BD4680BC704780B483B000AFED
:1046200078607B68D23318460C37BD4680BC704733
:1046300080B483B000AF78607B6803F59B73184645
:104640000C37BD4680BC704780B485B000AF786041
:104650007B6800221A647B6800221A700023FB60CA
:1046600010E07A68FB6810339B0013440A4A5A60D2
:104670007A68FB6818339B00134400225A60FB6879
:104680000133FB60FB68072BEBDD00BF00BF143775
:10469000BD4680BC704700BF000080BF80B58AB0B7
:1046A00000AFF860B9607A60BB681B78242B18D122
:1046B000BB6801331B78442B13D1BB6802331B78D2
:1046C000492B0ED1BB6803331B78532B09D1BB6830
:1046D00004331B78542B04D1BB6805331B782C2B77
:1046E0002AD0BB681B78002B1FD000237B620BE015
:1046F0007B6ABA6813441978504A7B6A13440A46A5
:104700001A707B6A01337B627B6ABA6813441B7838
:10471000002B02D07B6A3E2BEADD484A7B6A1344B9
:1047200000221A70464B01221A60464B1B68013367
:10473000444A136000237CE0434B1B680133424A28
:104740001360BB6806333B622C21386A03F09CFF80
:10475000B861BB69002B01D100236AE0BB6901335A
:104760003B623B6A1B78532B01D0002361E03B6A1C
:1047700001333B620023FB610DE0FA6913469B00A5
:1047800013445B001A463B6A1B78303B1344FB61C1
:104790003B6A01333B623B6A1B782F2B03D93B6A90
:1047A0001B78392BE9D9FB69002B02DDFB69082B4B
:1047B00001DD00233DE03B6A1B782C2B01D0002358
:1047C00037E03B6A01333B62386A02F011FF024670
:1047D0000B4610461946FCF739F903467B614FF04A
:1047E00000017869FCF738FC0346002B06D1174915
:1047F0007869FCF73BFC0346002B09D0FB69013BC1
:10480000FA6810339B001344114A5A60012310E0E8
:10481000FB69013BFA6810339B0013447A695A60C4
:10482000FB69013BFA6818339B0013447A685A60AD
:10483000012318462837BD4680BD00BFCC060020A6
:104840000C07002014070020100700200000484239
:10485000000080BF80B584B000AFF8600B467A607E
:10486000FB72FB7A0A2B02D0FB7A0D2B15D1FB6869
:104870001B6C002B0FDDFB681B6CFA680021D15408
:10488000FB6800221A64FB687A681946F868FFF72B
:1048900005FF03460EE000230CE0FB681B6C3E2B7B
:1048A00007DCFB681B6C591CFA681164FA68F97A1A
:1048B000D154002318461037BD4680BD80B584B062
:1048C00000AF786039600023FB600023BB602BE001
:1048D0007A68BB6810339B0013445B684FF000019B
:1048E0001846FCF7C3FB0346002B1AD07A68BB6856
:1048F00010339B0013445B680F491846FCF7A2FB7A
:104900000346002B0DD07A68BB6818339B00134414
:104910005B683A68D31AB3F5487F02D2FB6801336B
:10492000FB60BB680133BB60BB68072BD0DDFB6855
:1049300018461037BD4680BD0000484280B586B09D
:1049400000AFF860B9607A603B6000237B610023B0
:104950003B613DE0FA683B6910339B0013445B68A0
:104960004FF000011846FCF781FB0346002B26D0D0
:10497000FA683B6910339B0013445B681949184679
:10498000FCF760FB0346002B19D0FA683B6918332B
:104990009B0013445B683A68D31AB3F5487F0ED284
:1049A0003B699B00BA681A44F9683B6910339B0065
:1049B0000B445B6813607B6901337B6105E03B69F5
:1049C0009B00BA681344084A1A603B6901333B6193
:1049D0003A697B689A42BDDB7B6918461837BD4649
:1049E00080BD00BF00004842000080BFFDF760FEB0
:1049F0000B480C490C4A002302E0D458C45004333D
:104A0000C4188C42F9D3094A094C002301E0136011
:104A10000432A242FBD303F0A3FEFCF71DFF704754
:104A200000000020D80100208CC70008D801002019
:104A300068080020FEE7000080B500AF084B1B6847
:104A4000074A43F010031360032000F023F90F20FE
:104A500000F008F8FDF700FD0023184680BD00BFF8
:104A60000020024080B582B000AF7860124B1A6817
:104A7000124B1B7819464FF47A73B3FBF1F3B2FB78
:104A8000F3F3184600F06AF90346002B01D0012326
:104A90000EE07B680F2B0AD8002279684FF0FF30B8
:104AA00000F018F9064A7B681360002300E0012338
:104AB00018460837BD4680BD040000200C000020C9
:104AC0000800002080B400AF054B1B781A46054B48
:104AD0001B681344034A136000BFBD4680BC704787
:104AE0000C0000201807002080B400AF024B1B68A8
:104AF0001846BD4680BC70471807002080B485B0BA
:104B000000AF78607B6803F00703FB600C4BDB6849
:104B1000BB60BA684FF6FF031340BB60FB681A0224
:104B2000BB68134343F0BF6343F40033BB60044AE4
:104B3000BB68D36000BF1437BD4680BC704700BF60
:104B400000ED00E080B400AF044BDB681B0A03F00B
:104B500007031846BD4680BC704700BF00ED00E06B
:104B600080B483B000AF0346FB7197F90730002B88
:104B70000BDBFB7903F01F02064997F907305B094D
:104B8000012000FA02F241F8232000BF0C37BD4695
:104B900080BC704700E100E080B483B000AF034602
:104BA0003960FB7197F90730002B0ADB3B68DAB2FA
:104BB0000C4997F907301201D2B20B4483F8002355
:104BC0000AE03B68DAB20849FB7903F00F03043BC3
:104BD0001201D2B20B441A7600BF0C37BD4680BC1E
:104BE000704700BF00E100E000ED00E080B489B054
:104BF00000AFF860B9607A60FB6803F00703FB61FF
:104C0000FB69C3F10703042B28BF0423BB61FB69C5
:104C10000433062B02D9FB69033B00E000237B61D0
:104C20004FF0FF32BB6902FA03F3DA43BB681A4064
:104C30007B699A404FF0FF317B6901FA03F3D94356
:104C40007B680B40134318462437BD4680BC704731
:104C500080B582B000AF78607B68013BB3F1807FA4
:104C600001D301230FE00A4A7B68013B53600F2107
:104C70004FF0FF30FFF790FF054B00229A60044B86
:104C800007221A60002318460837BD4680BD00BFC2
:104C900010E000E080B582B000AF78607B68072B41
:104CA0000FD07B68062B0CD07B68052B09D07B6866
:104CB000042B06D07B68032B03D091210448FDF719
:104CC000C0FB7868FFF71AFF00BF0837BD4680BDFC
:104CD00030BE000880B586B000AF0346B9607A6088
:104CE000FB7300237B617B680F2B03D9A9210E483E
:104CF000FDF7A7FBBB680F2B03D9AA210A48FDF7D4
:104D0000A0FBFFF71FFF78617A68B9687869FFF741
:104D10006DFF024697F90F3011461846FFF73CFF2A
:104D200000BF1837BD4680BD30BE000880B582B0D8
:104D300000AF0346FB7197F90730002B03DABD2162
:104D40000548FDF77EFB97F907301846FFF708FF87
:104D500000BF0837BD4680BD30BE000880B582B0B8
:104D600000AF78607868FFF773FF0346184608378E
:104D7000BD4680BD80B584B000AF78600023FB6085
:104D80007B68002B01D10123DAE07B681B686E4A47
:104D9000934221D07B681B686C4A93421CD07B688D
:104DA0001B686B4A934217D07B681B68694A934221
:104DB00012D07B681B68684A93420DD07B681B68E1
:104DC000664A934208D07B681B68654A934203D0C9
:104DD00099216448FDF735FB7B685B68002B0CD09C
:104DE0007B685B68102B08D07B685B68B3F5804FED
:104DF00003D09A215B48FDF724FB7B689B68402B1E
:104E000007D07B689B68002B03D09B215548FDF79A
:104E100018FB7B68DB68802B07D07B68DB68002B86
:104E200003D09C214F48FDF70CFB7B681B69002BCE
:104E30000DD07B681B69B3F5807F08D07B681B6948
:104E4000B3F5007F03D09D214648FDF7FAFA7B6851
:104E50005B69002B0DD07B685B69B3F5806F08D070
:104E60007B685B69B3F5006F03D09E213D48FDF779
:104E7000E8FA7B689B69002B07D07B689B69202B35
:104E800003D09F213748FDF7DCFA7B68DB69002BF4
:104E900012D07B68DB69B3F5805F0DD07B68DB697E
:104EA000B3F5005F08D07B68DB69B3F5405F03D0E2
:104EB000A0212C48FDF7C5FA7B681B681A462A4BCF
:104EC00013442A4AA2FB03231B099A007B681A6435
:104ED0007B68274ADA637B68022283F821207B689B
:104EE0001B681B68FB60FB6823F47F5323F03003CF
:104EF000FB607B685A687B689B681A437B68DB6849
:104F00001A437B681B691A437B685B691A437B6899
:104F10009B691A437B68DB691343FA681343FB60A0
:104F20007B681B68FA681A607B6800229A637B685A
:104F3000012283F821207B68002283F820200023AF
:104F400018461037BD4680BD080002401C000240D4
:104F50003000024044000240580002406C00024011
:104F6000800002406CBE0008F8FFFDBFCDCCCCCC69
:104F70000000024080B586B000AFF860B9607A608A
:104F80003B600023FB753B68002B03D03B68B3F507
:104F9000803F04D34FF4B7712C48FDF752FAFB68F9
:104FA00093F82030012B01D102234BE0FB68012252
:104FB00083F82020FB6893F82130DBB2012B3AD133
:104FC000FB68022283F82120FB6800229A63FB68B9
:104FD0001B681A68FB681B6822F001021A603B68B4
:104FE0007A68B968F86800F0F8F9FB68DB6A002BAA
:104FF00008D0FB681B681A68FB681B6842F00E0249
:105000001A600FE0FB681B681A68FB681B6822F0D7
:1050100004021A60FB681B681A68FB681B6842F090
:105020000A021A60FB681B681A68FB681B6842F07A
:1050300001021A6005E0FB68002283F820200223A9
:10504000FB75FB7D18461837BD4680BD6CBE000859
:1050500080B485B000AF78600023FB737B6893F861
:105060002130DBB2022B08D07B6804229A637B6874
:10507000002283F82020012320E07B681B681A6847
:105080007B681B6822F00E021A607B681B681A6836
:105090007B681B6822F001021A607B681A6C7B68CF
:1050A000DB6B012101FA02F25A607B68012283F86E
:1050B00021207B68002283F82020FB7B18461437D0
:1050C000BD4680BC7047000080B584B000AF7860FA
:1050D0000023FB737B6893F82130DBB2022B05D0F1
:1050E0007B6804229A630123FB7351E07B681B6891
:1050F0001A687B681B6822F00E021A607B681B68C6
:105100001A687B681B6822F001021A607B681B68C2
:10511000224A934229D07B681B68214A934222D0BD
:105120007B681B681F4A93421AD07B681B681E4A23
:10513000934212D07B681B681C4A93420AD07B685A
:105140001B681B4A934202D14FF480130EE04FF0CC
:1051500080730BE04FF4803308E04FF4805305E098
:105160004FF4807302E0102300E00123114A5360E2
:105170007B68012283F821207B68002283F82020AD
:105180007B685B6B002B03D07B685B6B7868984710
:10519000FB7B18461037BD4680BD00BF08000240AB
:1051A0001C0002403000024044000240580002400F
:1051B0006C0002400000024080B584B000AF78600F
:1051C0007B68DB6B1B68FB607B681B681B68BB60D4
:1051D0007B681B6C04229A40FB681340002B4FD065
:1051E000BB6803F00403002B4AD07B681B681B6874
:1051F00003F02003002B07D17B681B681A687B68CB
:105200001B6822F004021A607B681B68664A93429E
:1052100029D07B681B68654A934222D07B681B6853
:10522000634A93421AD07B681B68624A934212D049
:105230007B681B68604A93420AD07B681B685F4AA0
:10524000934202D14FF480030EE04FF080630BE0F5
:105250004FF4802308E04FF4804305E04FF480636F
:1052600002E0402300E00423554A53607B68DB6A78
:10527000002B00F094807B68DB6A786898478EE0AA
:105280007B681B6C02229A40FB681340002B56D0AF
:10529000BB6803F00203002B51D07B681B681B68BE
:1052A00003F02003002B0BD17B681B681A687B6816
:1052B0001B6822F00A021A607B68012283F8212011
:1052C0007B681B68384A934229D07B681B68374A41
:1052D000934222D07B681B68354A93421AD07B6880
:1052E0001B68344A934212D07B681B68324A93424F
:1052F0000AD07B681B68314A934202D14FF40013F5
:105300000EE04FF000730BE04FF4003308E04FF471
:10531000005305E04FF4007302E0202300E0022375
:10532000274A53607B68002283F820207B689B6AB1
:10533000002B34D07B689B6A786898472FE07B68A5
:105340001B6C08229A40FB681340002B28D0BB68D6
:1053500003F00803002B23D07B681B681A687B6866
:105360001B6822F00E021A607B681A6C7B68DB6B8C
:10537000012101FA02F25A607B6801229A637B687C
:10538000012283F821207B68002283F820207B689B
:105390001B6B002B04D07B681B6B7868984700BFA1
:1053A00000BF1037BD4680BD080002401C0002400F
:1053B0003000024044000240580002406C000240AD
:1053C0000000024080B483B000AF78607B689B6BC4
:1053D00018460C37BD4680BC704780B485B000AF1E
:1053E000F860B9607A603B60FB681A6CFB68DB6B45
:1053F000012101FA02F25A60FB681B683A685A60A0
:10540000FB685B68102B08D1FB681B687A689A60A0
:10541000FB681B68BA68DA6007E0FB681B68BA685B
:105420009A60FB681B687A68DA6000BF1437BD4673
:1054300080BC704780B58AB000AF786039600023C7
:105440007B6200233B627B68964A934213D07B6861
:10545000954A93420FD07B68944A93420BD07B6865
:10546000934A934207D07B68924A934203D0BD216E
:105470009148FCF7E6FF3B681B689BB2002B04D009
:105480003B681B68B3F5803F03D3BE218A48FCF715
:10549000D8FF3B685B68002B00F01D823B685B68AF
:1054A000012B00F018823B685B68112B00F013821F
:1054B0003B685B68022B00F00E823B685B68122B36
:1054C00000F009823B685B687C4A934200F00382EB
:1054D0003B685B687A4A934200F0FD813B685B68F9
:1054E000784A934200F0F7813B685B68764A9342C2
:1054F00000F0F1813B685B68744A934200F0EB81F5
:105500003B685B68724A934200F0E5813B685B68E8
:10551000032B00F0E081BF216748FCF792FFDAE13E
:1055200001227B6A02FA03F3FB613B681B68FA699C
:105530001340BB61BA69FB699A4240F0C9817B683C
:10554000584A934213D07B68574A93420FD07B68E6
:10555000564A93420BD07B68554A934207D07B68EA
:10556000544A934203D0CD215348FCF76AFF3B686D
:105570005B68574A934200F0C280554A934200F25A
:10558000E880504A934200F0BA804E4A934200F2BB
:10559000E0804E4A934200F0B2804C4A934200F2BF
:1055A000D880474A934200F0AA80454A934200F2CD
:1055B000D080454A934200F0A280434A934200F2D1
:1055C000C880122B2CD8122B00F2C38001A252F8F3
:1055D00023F000BFFF560008295600087B5600083C
:1055E0004D570008535700085357000853570008F9
:1055F00053570008535700085357000853570008E3
:1056000053570008535700085357000853570008D2
:10561000535700085357000851560008D556000844
:10562000264A93426BD094E03B68DB68022B0BD098
:105630003B68DB68012B07D03B68DB68032B03D09A
:10564000D5211D48FCF7FDFE3B68DB683B6281E02D
:105650003B68DB68022B0BD03B68DB68012B07D073
:105660003B68DB68032B03D0DC211348FCF7E9FE21
:105670003B68DB6804333B626CE03B68DB68022B11
:105680000BD03B68DB68012B07D03B68DB68032B42
:1056900003D0E3210848FCF7D4FE3B68DB680833FD
:1056A0003B6257E000080140000C0140001001403F
:1056B0000014014000180140A4BE000800001110B1
:1056C0000000211000003110000012100000221014
:1056D000000032103B68DB68022B0BD03B68DB68B4
:1056E000012B07D03B68DB68032B03D0EA218048FD
:1056F000FCF7A7FE3B68DB680C333B622AE03B68A3
:105700009B68002B0BD03B689B68012B07D03B6844
:105710009B68022B03D0F7217548FCF792FE3B688B
:105720009B68002B02D104233B6213E03B689B681B
:10573000012B05D108233B627B68FA691A6109E0F5
:1057400008233B627B68FA695A6103E000233B62ED
:1057500000E000BFBB69FF2B01D87B6801E07B68DC
:1057600004337B61BB69FF2B02D87B6A9B0002E09C
:105770007B6A083B9B003B617B691A680F213B6990
:1057800001FA03F3DB431A40396A3B6901FA03F378
:105790001A437B691A603B685B6803F08053002BF7
:1057A00000F09680534B9B69524A43F0010393618A
:1057B000504B9B6903F00103BB60BB684E4A7B6A98
:1057C0009B08023352F82330FB607B6A03F003032B
:1057D0009B000F2202FA03F3DB43FA681340FB60DD
:1057E0007B68464A934213D07B68454A93420DD06A
:1057F0007B68444A934207D07B68434A934201D175
:10580000032306E0042304E0022302E0012300E076
:1058100000237A6A02F0030292009340FA6813436D
:10582000FB6035497B6A9B080233FA6841F8232004
:105830003B685B6803F48013002B06D0334B9A68F7
:105840003249BB6913438B6006E0304B9A68BB69F1
:10585000DB432E4913408B603B685B6803F4001305
:10586000002B06D0294BDA682849BB691343CB606B
:1058700006E0264BDA68BB69DB4324491340CB6062
:105880003B685B6803F40033002B06D01F4B5A685B
:105890001E49BB6913434B6006E01C4B5A68BB6949
:1058A000DB431A4913404B603B685B6803F4803369
:1058B000002B06D0154B1A681449BB6913430B60C3
:1058C00006E0124B1A68BB69DB43104913400B60BA
:1058D0007B6A01337B623B681A687B6A22FA03F3B6
:1058E000002B7FF41DAE00BF00BF2837BD4680BD32
:1058F000A4BE000800100240000001400008014062
:10590000000C01400010014000140140000401405F
:1059100080B582B000AF78600B467B8013467B7009
:105920007B88002B04D14FF4EA710E48FCF789FD07
:105930007B78002B07D07B78012B04D040F2D51167
:105940000848FCF77EFD7B78002B03D07A887B68C3
:105950001A6103E07B881A047B681A6100BF08376C
:10596000BD4680BDA4BE000880B586B000AF78609B
:105970007B68002B01D101235AE37B681B68002B55
:105980001CD07B681B6803F00103002B16D17B68D9
:105990001B6803F00203002B10D17B681B6803F027
:1059A0000803002B0AD17B681B6803F00403002B5B
:1059B00004D140F265118F48FCF743FD7B681B68FA
:1059C00003F00103002B00F09A807B685B68002BDA
:1059D0000ED07B685B68B3F5803F09D07B685B685D
:1059E000B3F5A02F04D040F26B118248FCF729FDDB
:1059F000814B5B6803F00C03042B0CD07E4B5B687F
:105A000003F00C03082B12D17B4B5B6803F480334B
:105A1000B3F5803F0BD1784B1B6803F40033002BA8
:105A20006CD07B685B68002B68D1012300E37B6846
:105A30005B68B3F5803F06D16F4B1B686E4A43F439
:105A4000803313602EE07B685B68002B0CD16A4BBF
:105A50001B68694A23F480331360674B1B68664AEE
:105A600023F4802313601DE07B685B68B3F5A02FEF
:105A70000CD1614B1B68604A43F4802313605E4B7A
:105A80001B685D4A43F4803313600BE05A4B1B687C
:105A9000594A23F480331360574B1B68564A23F44A
:105AA000802313607B685B68002B13D0FFF71CF822
:105AB000386108E0FFF718F802463B69D31A642BF7
:105AC00001D90323B4E24C4B1B6803F40033002BD1
:105AD000F0D014E0FFF708F8386108E0FFF704F8A9
